{
  "address": "0x7906743465F43fe72Ced0986D62037920929dDC7",
  "abi": [
    {
      "inputs": [
        {
          "internalType": "uint256",
          "name": "feeAmount",
          "type": "uint256"
        },
        {
          "internalType": "address payable",
          "name": "feeToAddr",
          "type": "address"
        }
      ],
      "stateMutability": "nonpayable",
      "type": "constructor"
    },
    {
      "anonymous": false,
      "inputs": [
        {
          "indexed": true,
          "internalType": "bytes32",
          "name": "key",
          "type": "bytes32"
        }
      ],
      "name": "DeletedTemplate",
      "type": "event"
    },
    {
      "anonymous": false,
      "inputs": [
        {
          "indexed": false,
          "internalType": "address",
          "name": "deployed",
          "type": "address"
        },
        {
          "indexed": false,
          "internalType": "address",
          "name": "owner",
          "type": "address"
        }
      ],
      "name": "Deployed",
      "type": "event"
    },
    {
      "anonymous": false,
      "inputs": [
        {
          "indexed": false,
          "internalType": "uint256",
          "name": "prevFee",
          "type": "uint256"
        },
        {
          "indexed": false,
          "internalType": "uint256",
          "name": "fee",
          "type": "uint256"
        }
      ],
      "name": "FeeChanged",
      "type": "event"
    },
    {
      "anonymous": false,
      "inputs": [
        {
          "indexed": false,
          "internalType": "address",
          "name": "prevFeeTo",
          "type": "address"
        },
        {
          "indexed": false,
          "internalType": "address",
          "name": "feeTo",
          "type": "address"
        }
      ],
      "name": "FeeToChanged",
      "type": "event"
    },
    {
      "anonymous": false,
      "inputs": [
        {
          "indexed": true,
          "internalType": "bytes32",
          "name": "key",
          "type": "bytes32"
        },
        {
          "indexed": false,
          "internalType": "address",
          "name": "template",
          "type": "address"
        },
        {
          "indexed": false,
          "internalType": "address",
          "name": "beacon",
          "type": "address"
        }
      ],
      "name": "NewTemplate",
      "type": "event"
    },
    {
      "anonymous": false,
      "inputs": [
        {
          "indexed": true,
          "internalType": "address",
          "name": "previousOwner",
          "type": "address"
        },
        {
          "indexed": true,
          "internalType": "address",
          "name": "newOwner",
          "type": "address"
        }
      ],
      "name": "OwnershipTransferred",
      "type": "event"
    },
    {
      "anonymous": false,
      "inputs": [
        {
          "indexed": true,
          "internalType": "bytes32",
          "name": "key",
          "type": "bytes32"
        },
        {
          "indexed": false,
          "internalType": "address",
          "name": "template",
          "type": "address"
        }
      ],
      "name": "UpdatedTemplate",
      "type": "event"
    },
    {
      "inputs": [
        {
          "internalType": "address",
          "name": "templateAddr",
          "type": "address"
        }
      ],
      "name": "addTemplate",
      "outputs": [],
      "stateMutability": "nonpayable",
      "type": "function"
    },
    {
      "inputs": [],
      "name": "baseFee",
      "outputs": [
        {
          "internalType": "uint256",
          "name": "",
          "type": "uint256"
        }
      ],
      "stateMutability": "view",
      "type": "function"
    },
    {
      "inputs": [
        {
          "internalType": "uint256",
          "name": "newFee",
          "type": "uint256"
        }
      ],
      "name": "changeFee",
      "outputs": [],
      "stateMutability": "nonpayable",
      "type": "function"
    },
    {
      "inputs": [
        {
          "internalType": "address payable",
          "name": "newFeeTo",
          "type": "address"
        }
      ],
      "name": "changeFeeTo",
      "outputs": [],
      "stateMutability": "nonpayable",
      "type": "function"
    },
    {
      "inputs": [
        {
          "internalType": "address",
          "name": "templateAddr",
          "type": "address"
        },
        {
          "internalType": "bytes",
          "name": "initializationCallData",
          "type": "bytes"
        },
        {
          "internalType": "bytes[]",
          "name": "calls",
          "type": "bytes[]"
        }
      ],
      "name": "clone",
      "outputs": [
        {
          "internalType": "address",
          "name": "deployed",
          "type": "address"
        }
      ],
      "stateMutability": "payable",
      "type": "function"
    },
    {
      "inputs": [
        {
          "internalType": "address",
          "name": "tokenAddr",
          "type": "address"
        }
      ],
      "name": "collect",
      "outputs": [],
      "stateMutability": "nonpayable",
      "type": "function"
    },
    {
      "inputs": [
        {
          "internalType": "bool",
          "name": "isBeacon",
          "type": "bool"
        },
        {
          "internalType": "bytes32",
          "name": "templateId",
          "type": "bytes32"
        },
        {
          "internalType": "bytes",
          "name": "initializationCallData",
          "type": "bytes"
        }
      ],
      "name": "compute",
      "outputs": [
        {
          "internalType": "address",
          "name": "deployable",
          "type": "address"
        }
      ],
      "stateMutability": "view",
      "type": "function"
    },
    {
      "inputs": [
        {
          "internalType": "address",
          "name": "templateAddr",
          "type": "address"
        },
        {
          "internalType": "bytes",
          "name": "initializationCallData",
          "type": "bytes"
        }
      ],
      "name": "computeClone",
      "outputs": [
        {
          "internalType": "address",
          "name": "deployable",
          "type": "address"
        }
      ],
      "stateMutability": "view",
      "type": "function"
    },
    {
      "inputs": [
        {
          "internalType": "string",
          "name": "seed",
          "type": "string"
        },
        {
          "internalType": "bool",
          "name": "isBeacon",
          "type": "bool"
        },
        {
          "internalType": "bytes32",
          "name": "templateId",
          "type": "bytes32"
        },
        {
          "internalType": "bytes",
          "name": "initializationCallData",
          "type": "bytes"
        }
      ],
      "name": "computeWithSeed",
      "outputs": [
        {
          "internalType": "address",
          "name": "deployable",
          "type": "address"
        }
      ],
      "stateMutability": "view",
      "type": "function"
    },
    {
      "inputs": [
        {
          "internalType": "bool",
          "name": "isBeacon",
          "type": "bool"
        },
        {
          "internalType": "bytes32",
          "name": "templateId",
          "type": "bytes32"
        },
        {
          "internalType": "bytes",
          "name": "initializationCallData",
          "type": "bytes"
        },
        {
          "internalType": "bytes[]",
          "name": "calls",
          "type": "bytes[]"
        }
      ],
      "name": "deploy",
      "outputs": [
        {
          "internalType": "address",
          "name": "deployed",
          "type": "address"
        }
      ],
      "stateMutability": "payable",
      "type": "function"
    },
    {
      "inputs": [
        {
          "internalType": "string",
          "name": "seed",
          "type": "string"
        },
        {
          "internalType": "bool",
          "name": "isBeacon",
          "type": "bool"
        },
        {
          "internalType": "bytes32",
          "name": "templateId",
          "type": "bytes32"
        },
        {
          "internalType": "bytes",
          "name": "initializationCallData",
          "type": "bytes"
        },
        {
          "internalType": "bytes[]",
          "name": "calls",
          "type": "bytes[]"
        }
      ],
      "name": "deployWithSeed",
      "outputs": [
        {
          "internalType": "address",
          "name": "deployed",
          "type": "address"
        }
      ],
      "stateMutability": "payable",
      "type": "function"
    },
    {
      "inputs": [],
      "name": "feeTo",
      "outputs": [
        {
          "internalType": "address payable",
          "name": "",
          "type": "address"
        }
      ],
      "stateMutability": "view",
      "type": "function"
    },
    {
      "inputs": [],
      "name": "getPrice",
      "outputs": [
        {
          "internalType": "uint256",
          "name": "price",
          "type": "uint256"
        }
      ],
      "stateMutability": "view",
      "type": "function"
    },
    {
      "inputs": [
        {
          "internalType": "bytes[]",
          "name": "callData",
          "type": "bytes[]"
        }
      ],
      "name": "multicall",
      "outputs": [
        {
          "internalType": "bytes[]",
          "name": "returnData",
          "type": "bytes[]"
        }
      ],
      "stateMutability": "nonpayable",
      "type": "function"
    },
    {
      "inputs": [],
      "name": "nonce",
      "outputs": [
        {
          "internalType": "uint256",
          "name": "",
          "type": "uint256"
        }
      ],
      "stateMutability": "view",
      "type": "function"
    },
    {
      "inputs": [],
      "name": "owner",
      "outputs": [
        {
          "internalType": "address",
          "name": "",
          "type": "address"
        }
      ],
      "stateMutability": "view",
      "type": "function"
    },
    {
      "inputs": [
        {
          "internalType": "address",
          "name": "deployed",
          "type": "address"
        },
        {
          "internalType": "address",
          "name": "to",
          "type": "address"
        }
      ],
      "name": "recoverOwnership",
      "outputs": [],
      "stateMutability": "nonpayable",
      "type": "function"
    },
    {
      "inputs": [
        {
          "internalType": "bytes32",
          "name": "key",
          "type": "bytes32"
        }
      ],
      "name": "removeTemplate",
      "outputs": [],
      "stateMutability": "nonpayable",
      "type": "function"
    },
    {
      "inputs": [],
      "name": "resignOwnership",
      "outputs": [],
      "stateMutability": "nonpayable",
      "type": "function"
    },
    {
      "inputs": [
        {
          "internalType": "bytes32",
          "name": "",
          "type": "bytes32"
        }
      ],
      "name": "templates",
      "outputs": [
        {
          "internalType": "address",
          "name": "template",
          "type": "address"
        },
        {
          "internalType": "address",
          "name": "btemplate",
          "type": "address"
        }
      ],
      "stateMutability": "view",
      "type": "function"
    },
    {
      "inputs": [
        {
          "internalType": "address",
          "name": "newOwner",
          "type": "address"
        }
      ],
      "name": "transferOwnership",
      "outputs": [],
      "stateMutability": "nonpayable",
      "type": "function"
    },
    {
      "inputs": [
        {
          "internalType": "bytes32",
          "name": "key",
          "type": "bytes32"
        },
        {
          "internalType": "address",
          "name": "templateAddr",
          "type": "address"
        }
      ],
      "name": "updateTemplate",
      "outputs": [],
      "stateMutability": "nonpayable",
      "type": "function"
    }
  ],
  "transactionHash": "0x9951a59047b5614899880acde8461e44fe1cf7acc174dea79d0fd7cb0b190b4e",
  "args": [
    "10000000000000000",
    "0x54B5E06c82f0d3d91377E5827BFb2381Ef1CC2b7"
  ],
  "numDeployments": 1,
  "solcInputHash": "9cb17cafb54a33799e572b3a1d761130",
  "bytecode": "0x608060405260016003553480156200001657600080fd5b50604051620036b7380380620036b78339810160408190526200003991620000d1565b600080546001600160a01b0319163390811782556040519091907f8be0079c531659141344cd1fd0a4f28419497f9722a3daafe3b4186f6b6457e0908290a3600491909155600580546001600160a01b0319166001600160a01b039092169190911790556000805260026020526000197fac33ff75c19e70fe83507db0d683fd3465c996598dc972688b7ace676c89077b5562000110565b60008060408385031215620000e557600080fd5b825160208401519092506001600160a01b03811681146200010557600080fd5b809150509250929050565b61359780620001206000396000f3fe608060405260043610620001935760003560e01c80636ef25c3a11620000db578063ac9650d81162000089578063e7274c2b1162000060578063e7274c2b14620004be578063ed0c709114620004e3578063f2fde38b14620004fb57600080fd5b8063ac9650d8146200044d578063affed0e01462000481578063bdcf41ee146200049957600080fd5b8063973388b311620000be578063973388b314620003fa57806398d5fdca146200041f578063a7d5eb82146200043657600080fd5b80636ef25c3a14620003a45780638da5cb5b14620003cb57600080fd5b80635046da821162000145578063569f52e5116200011c578063569f52e514620003435780635950222b146200035a5780636a1db1bf146200037f57600080fd5b80635046da8214620002e25780635313992b14620002f957806355b30266146200031e57600080fd5b80630a631576116200017a5780630a631576146200021857806323b1cde4146200029857806347e09a0b14620002bd57600080fd5b8063017e7e58146200019857806306ec16f814620001f1575b600080fd5b348015620001a557600080fd5b50600554620001c79073ffffffffffffffffffffffffffffffffffffffff1681565b60405173ffffffffffffffffffffffffffffffffffffffff90911681526020015b60405180910390f35b348015620001fe57600080fd5b50620002166200021036600462002429565b62000520565b005b3480156200022557600080fd5b506200026a6200023736600462002449565b6001602081905260009182526040909120805491015473ffffffffffffffffffffffffffffffffffffffff918216911682565b6040805173ffffffffffffffffffffffffffffffffffffffff938416815292909116602083015201620001e8565b348015620002a557600080fd5b5062000216620002b736600462002429565b620006e2565b348015620002ca57600080fd5b5062000216620002dc36600462002449565b620007ec565b620001c7620002f336600462002654565b62000987565b3480156200030657600080fd5b50620002166200031836600462002707565b62000bcf565b3480156200032b57600080fd5b50620002166200033d36600462002429565b62000f60565b620001c7620003543660046200273a565b620011c9565b3480156200036757600080fd5b50620001c762000379366004620027b9565b620013ea565b3480156200038c57600080fd5b50620002166200039e36600462002449565b6200145c565b348015620003b157600080fd5b50620003bc60045481565b604051908152602001620001e8565b348015620003d857600080fd5b50600054620001c79073ffffffffffffffffffffffffffffffffffffffff1681565b3480156200040757600080fd5b50620001c7620004193660046200280e565b6200151e565b3480156200042c57600080fd5b50600454620003bc565b620001c76200044736600462002899565b62001595565b3480156200045a57600080fd5b50620004726200046c36600462002916565b620017d8565b604051620001e8919062002a0f565b3480156200048e57600080fd5b50620003bc60035481565b348015620004a657600080fd5b50620001c7620004b836600462002a93565b62001965565b348015620004cb57600080fd5b5062000216620004dd36600462002ae9565b62001973565b348015620004f057600080fd5b506200021662001a7d565b3480156200050857600080fd5b50620002166200051a36600462002429565b62001b54565b60005473ffffffffffffffffffffffffffffffffffffffff163314620005a7576040517f08c379a000000000000000000000000000000000000000000000000000000000815260206004820152601860248201527f4f776e6572736869702f4e6f742d417574686f72697a6564000000000000000060448201526064015b60405180910390fd5b6005546040517f70a0823100000000000000000000000000000000000000000000000000000000815230600482015273ffffffffffffffffffffffffffffffffffffffff8381169263a9059cbb9291169083906370a0823190602401602060405180830381865afa15801562000621573d6000803e3d6000fd5b505050506040513d601f19601f8201168201806040525081019062000647919062002b1c565b6040517fffffffff0000000000000000000000000000000000000000000000000000000060e085901b16815273ffffffffffffffffffffffffffffffffffffffff909216600483015260248201526044016020604051808303816000875af1158015620006b8573d6000803e3d6000fd5b505050506040513d601f19601f82011682018060405250810190620006de919062002b36565b5050565b60005473ffffffffffffffffffffffffffffffffffffffff16331462000765576040517f08c379a000000000000000000000000000000000000000000000000000000000815260206004820152601860248201527f4f776e6572736869702f4e6f742d417574686f72697a6564000000000000000060448201526064016200059e565b6005805473ffffffffffffffffffffffffffffffffffffffff8381167fffffffffffffffffffffffff000000000000000000000000000000000000000083168117909355604080519190921680825260208201939093527f82b35d45c357f923889a214ea247bfd97c31805b21391e139b94c750134b29bc91015b60405180910390a15050565b60005473ffffffffffffffffffffffffffffffffffffffff1633146200086f576040517f08c379a000000000000000000000000000000000000000000000000000000000815260206004820152601860248201527f4f776e6572736869702f4e6f742d417574686f72697a6564000000000000000060448201526064016200059e565b6000818152600160208181526040928390208351808501909452805473ffffffffffffffffffffffffffffffffffffffff9081168086529190930154909216908301526200091a576040517f08c379a000000000000000000000000000000000000000000000000000000000815260206004820152601160248201527f466163746f72792f4e6f6e2d457869737400000000000000000000000000000060448201526064016200059e565b600082815260016020819052604080832080547fffffffffffffffffffffffff00000000000000000000000000000000000000009081168255920180549092169091555183917fc233a96b1b7f2a646d88a34a3e9e07e9e248940119cee10ae5386bec04099a0e91a25050565b600034600454111580620009b2575060005473ffffffffffffffffffffffffffffffffffffffff1633145b62000a1a576040517f08c379a000000000000000000000000000000000000000000000000000000000815260206004820152601960248201527f466163746f72792f496e636f72726563742d616d6f756e74730000000000000060448201526064016200059e565b60055462000a3f9073ffffffffffffffffffffffffffffffffffffffff163462001c64565b506000848152600160208181526040928390208351808501909452805473ffffffffffffffffffffffffffffffffffffffff9081168552920154909116908201528562000a9d5762000a978782600001518662001c83565b62000aae565b62000aae8782602001518662001ced565b83519092501562000b77576040517fac9650d800000000000000000000000000000000000000000000000000000000815273ffffffffffffffffffffffffffffffffffffffff83169063ac9650d89062000b0d90869060040162002a0f565b6000604051808303816000875af115801562000b2d573d6000803e3d6000fd5b505050506040513d6000823e601f3d9081017fffffffffffffffffffffffffffffffffffffffffffffffffffffffffffffffe016820160405262000b75919081019062002b8c565b505b6040805173ffffffffffffffffffffffffffffffffffffffff841681523360208201527f09e48df7857bd0c1e0d31bb8a85d42cf1874817895f171c917f6ee2cea73ec20910160405180910390a15095945050505050565b60005473ffffffffffffffffffffffffffffffffffffffff16331462000c52576040517f08c379a000000000000000000000000000000000000000000000000000000000815260206004820152601860248201527f4f776e6572736869702f4e6f742d417574686f72697a6564000000000000000060448201526064016200059e565b73ffffffffffffffffffffffffffffffffffffffff811662000cd1576040517f08c379a000000000000000000000000000000000000000000000000000000000815260206004820152601160248201527f466163746f72792f4e6f6e2d56616c696400000000000000000000000000000060448201526064016200059e565b73ffffffffffffffffffffffffffffffffffffffff81166000908152600260205260409020541562000d60576040517f08c379a000000000000000000000000000000000000000000000000000000000815260206004820152601960248201527f466163746f72792f726567697374657265642d6265666f72650000000000000060448201526064016200059e565b73ffffffffffffffffffffffffffffffffffffffff81163b62000de0576040517f08c379a000000000000000000000000000000000000000000000000000000000815260206004820152601760248201527f466163746f72792f69732d6e6f742d436f6e747261637400000000000000000060448201526064016200059e565b60008281526001602081815260408084208151808301835293015473ffffffffffffffffffffffffffffffffffffffff9081168484018190529086168085528251938401529293929101604080517fffffffffffffffffffffffffffffffffffffffffffffffffffffffffffffffe08184030181529082905262000e649162002c5f565b6000604051808303816000865af19150503d806000811462000ea3576040519150601f19603f3d011682016040523d82523d6000602084013e62000ea8565b606091505b505090508062000ebc5762000ebc62002c7d565b6000848152600160208181526040928390208551815473ffffffffffffffffffffffffffffffffffffffff9182167fffffffffffffffffffffffff00000000000000000000000000000000000000009182168117845588850151939095018054939092169216919091179055915190815285917f6d2d843e6cb2e8436f702cf2f8caf57b41ae30910bda687881574260c2b84a65910160405180910390a250505050565b60005473ffffffffffffffffffffffffffffffffffffffff16331462000fe3576040517f08c379a000000000000000000000000000000000000000000000000000000000815260206004820152601860248201527f4f776e6572736869702f4e6f742d417574686f72697a6564000000000000000060448201526064016200059e565b73ffffffffffffffffffffffffffffffffffffffff81166000908152600260205260409020541562001072576040517f08c379a000000000000000000000000000000000000000000000000000000000815260206004820152601160248201527f466163746f72792f4e6f6e2d56616c696400000000000000000000000000000060448201526064016200059e565b6003546040805173ffffffffffffffffffffffffffffffffffffffff84166020820152908101919091526000906060016040516020818303038152906040528051906020012090506000620010c78362001cfc565b60408051808201825273ffffffffffffffffffffffffffffffffffffffff808716825280841660208084019182526000888152600191829052948520935184549084167fffffffffffffffffffffffff00000000000000000000000000000000000000009182161785559151930180549390921692169190911790556003805492935090620011568362002cac565b9091555073ffffffffffffffffffffffffffffffffffffffff8481166000818152600260209081526040918290209490945580519182529184169281019290925283917f51219b79f68b0887bcfa321d00a5bcbb9e5d1b914df144771313c817fea80e99910160405180910390a2505050565b73ffffffffffffffffffffffffffffffffffffffff83166000908152600260205260408120541562001258576040517f08c379a000000000000000000000000000000000000000000000000000000000815260206004820152601b60248201527f466163746f72792f526567697374657265642d54656d706c617465000000000060448201526064016200059e565b34600454148062001280575060005473ffffffffffffffffffffffffffffffffffffffff1633145b620012e8576040517f08c379a000000000000000000000000000000000000000000000000000000000815260206004820152601960248201527f466163746f72792f496e636f72726563742d616d6f756e74730000000000000060448201526064016200059e565b6005546200130d9073ffffffffffffffffffffffffffffffffffffffff163462001c64565b506200131a848462001d92565b825190915015620013e3576040517fac9650d800000000000000000000000000000000000000000000000000000000815273ffffffffffffffffffffffffffffffffffffffff82169063ac9650d8906200137990859060040162002a0f565b6000604051808303816000875af115801562001399573d6000803e3d6000fd5b505050506040513d6000823e601f3d9081017fffffffffffffffffffffffffffffffffffffffffffffffffffffffffffffffe0168201604052620013e1919081019062002b8c565b505b9392505050565b60008281526001602081815260408084208151808301909252805473ffffffffffffffffffffffffffffffffffffffff90811683529301549092169082015284620014435780516200143d908462001ddc565b62001453565b6200145381602001518462001df8565b95945050505050565b60005473ffffffffffffffffffffffffffffffffffffffff163314620014df576040517f08c379a000000000000000000000000000000000000000000000000000000000815260206004820152601860248201527f4f776e6572736869702f4e6f742d417574686f72697a6564000000000000000060448201526064016200059e565b600480549082905560408051828152602081018490527f5fc463da23c1b063e66f9e352006a7fbe8db7223c455dc429e881a2dfe2f94f19101620007e0565b60008281526001602081815260408084208151808301909252805473ffffffffffffffffffffffffffffffffffffffff908116835293015490921690820152846200157a57620015748682600001518562001e14565b6200158b565b6200158b8682602001518562001e31565b9695505050505050565b600034600454111580620015c0575060005473ffffffffffffffffffffffffffffffffffffffff1633145b62001628576040517f08c379a000000000000000000000000000000000000000000000000000000000815260206004820152601960248201527f466163746f72792f496e636f72726563742d616d6f756e74730000000000000060448201526064016200059e565b6005546200164d9073ffffffffffffffffffffffffffffffffffffffff163462001c64565b506000848152600160208181526040928390208351808501909452805473ffffffffffffffffffffffffffffffffffffffff90811685529201549091169082015285620016a8578051620016a2908562001d92565b620016b8565b620016b881602001518562001e40565b83519092501562001781576040517fac9650d800000000000000000000000000000000000000000000000000000000815273ffffffffffffffffffffffffffffffffffffffff83169063ac9650d8906200171790869060040162002a0f565b6000604051808303816000875af115801562001737573d6000803e3d6000fd5b505050506040513d6000823e601f3d9081017fffffffffffffffffffffffffffffffffffffffffffffffffffffffffffffffe01682016040526200177f919081019062002b8c565b505b6040805173ffffffffffffffffffffffffffffffffffffffff841681523360208201527f09e48df7857bd0c1e0d31bb8a85d42cf1874817895f171c917f6ee2cea73ec20910160405180910390a150949350505050565b60608167ffffffffffffffff811115620017f657620017f662002463565b6040519080825280602002602001820160405280156200182b57816020015b6060815260200190600190039081620018155790505b50905060005b828110156200195e576000803086868581811062001853576200185362002d0d565b905060200281019062001867919062002d3c565b6040516200187792919062002dab565b600060405180830381855af49150503d8060008114620018b4576040519150601f19603f3d011682016040523d82523d6000602084013e620018b9565b606091505b5091509150816200192557604481511015620018d457600080fd5b60048101905080806020019051810190620018f0919062002dbb565b6040517f08c379a00000000000000000000000000000000000000000000000000000000081526004016200059e919062002e11565b808484815181106200193b576200193b62002d0d565b602002602001018190525050508080620019559062002cac565b91505062001831565b5092915050565b6000620013e3838362001ddc565b60005473ffffffffffffffffffffffffffffffffffffffff163314620019f6576040517f08c379a000000000000000000000000000000000000000000000000000000000815260206004820152601860248201527f4f776e6572736869702f4e6f742d417574686f72697a6564000000000000000060448201526064016200059e565b6040517ff2fde38b00000000000000000000000000000000000000000000000000000000815273ffffffffffffffffffffffffffffffffffffffff828116600483015283169063f2fde38b90602401600060405180830381600087803b15801562001a6057600080fd5b505af115801562001a75573d6000803e3d6000fd5b505050505050565b60005473ffffffffffffffffffffffffffffffffffffffff16331462001b00576040517f08c379a000000000000000000000000000000000000000000000000000000000815260206004820152601860248201527f4f776e6572736869702f4e6f742d417574686f72697a6564000000000000000060448201526064016200059e565b600080547fffffffffffffffffffffffff000000000000000000000000000000000000000016815560405133907f8be0079c531659141344cd1fd0a4f28419497f9722a3daafe3b4186f6b6457e0908390a3565b60005473ffffffffffffffffffffffffffffffffffffffff16331462001bd7576040517f08c379a000000000000000000000000000000000000000000000000000000000815260206004820152601860248201527f4f776e6572736869702f4e6f742d417574686f72697a6564000000000000000060448201526064016200059e565b73ffffffffffffffffffffffffffffffffffffffff811662001c56576040517f08c379a000000000000000000000000000000000000000000000000000000000815260206004820152601a60248201527f4f776e6572736869702f4e6f742d416c6c6f7765642d5a65726f00000000000060448201526064016200059e565b62001c618162001e5e565b50565b600080600080600085875af190503d816200195e57806000803e806000fd5b60008062001c92848462001ed3565b90506000338660405160200162001cab92919062002e26565b6040516020818303038152906040528051906020012090508160200182518281836000f594505050823b62001ce4573d6000803e3d6000fd5b50509392505050565b60008062001c9284846200203d565b6040805173ffffffffffffffffffffffffffffffffffffffff83166020820152600091829101604080517fffffffffffffffffffffffffffffffffffffffffffffffffffffffffffffffe08184030181529082905262001d5f9160200162002e73565b60405160208183030381529060405290508051602082016000f09150813b62001d8c573d6000803e3d6000fd5b50919050565b60008062001da1848462001ed3565b9050600062001db0826200206b565b5090508160200182518281836000f594505050823b62001dd4573d6000803e3d6000fd5b505092915050565b60008062001deb848462001ed3565b905062001453816200206b565b60008062001e0784846200203d565b90506200145381620021b5565b60008062001e23848462001ed3565b9050620014538186620022f7565b60008062001e2384846200203d565b60008062001e4f84846200203d565b9050600062001db082620021b5565b6000805473ffffffffffffffffffffffffffffffffffffffff8381167fffffffffffffffffffffffff0000000000000000000000000000000000000000831681178455604051919092169283917f8be0079c531659141344cd1fd0a4f28419497f9722a3daafe3b4186f6b6457e09190a35050565b6060600082511162001f935760405162001ef060208201620023d0565b7fffffffffffffffffffffffffffffffffffffffffffffffffffffffffffffffe082820381018352601f90910116604081815273ffffffffffffffffffffffffffffffffffffffff8616602083015201604080517fffffffffffffffffffffffffffffffffffffffffffffffffffffffffffffffe08184030181529082905262001f7e929160200162002f2d565b604051602081830303815290604052620013e3565b60405162001fa460208201620023dd565b7fffffffffffffffffffffffffffffffffffffffffffffffffffffffffffffffe082820381018352601f90910116604081905262001fe9908590859060200162002f60565b604080517fffffffffffffffffffffffffffffffffffffffffffffffffffffffffffffffe08184030181529082905262002027929160200162002f2d565b6040516020818303038152906040529392505050565b606060008251116200205a5760405162001ef060208201620023eb565b60405162001fa460208201620023f8565b80516020820120600090819081805b6040517fffffffffffffffffffffffffffffffffffffffff0000000000000000000000003360601b16602082015260348101839052605401604080518083037fffffffffffffffffffffffffffffffffffffffffffffffffffffffffffffffe00181529082905280516020918201207fff00000000000000000000000000000000000000000000000000000000000000918301919091527fffffffffffffffffffffffffffffffffffffffff0000000000000000000000003060601b16602183015260358201819052605582018590529550607501604080517fffffffffffffffffffffffffffffffffffffffffffffffffffffffffffffffe08184030181529190528051602090910120935050823b1515806200219857620021ad565b81620021a48162002cac565b9250506200207a565b505050915091565b80516020820120600090819081805b6040517fffffffffffffffffffffffffffffffffffffffff0000000000000000000000003360601b16602082015260348101839052605401604080518083037fffffffffffffffffffffffffffffffffffffffffffffffffffffffffffffffe00181529082905280516020918201207fff00000000000000000000000000000000000000000000000000000000000000918301919091527fffffffffffffffffffffffffffffffffffffffff0000000000000000000000003060601b16602183015260358201819052605582018590529550607501604080517fffffffffffffffffffffffffffffffffffffffffffffffffffffffffffffffe08184030181529190528051602090910120935050823b151580620022e257620021ad565b81620022ee8162002cac565b925050620021c4565b60008083805190602001209050600033846040516020016200231b92919062002e26565b604080517fffffffffffffffffffffffffffffffffffffffffffffffffffffffffffffffe081840301815282825280516020918201207fff00000000000000000000000000000000000000000000000000000000000000828501523060601b7fffffffffffffffffffffffffffffffffffffffff000000000000000000000000166021850152603584015260558084019590955281518084039095018552607590920190528251920191909120949350505050565b608a8062002f9283390190565b6101fd806200301c83390190565b609f806200321983390190565b6102aa80620032b883390190565b73ffffffffffffffffffffffffffffffffffffffff8116811462001c6157600080fd5b6000602082840312156200243c57600080fd5b8135620013e38162002406565b6000602082840312156200245c57600080fd5b5035919050565b7f4e487b7100000000000000000000000000000000000000000000000000000000600052604160045260246000fd5b604051601f82017fffffffffffffffffffffffffffffffffffffffffffffffffffffffffffffffe016810167ffffffffffffffff81118282101715620024dc57620024dc62002463565b604052919050565b600067ffffffffffffffff82111562002501576200250162002463565b50601f017fffffffffffffffffffffffffffffffffffffffffffffffffffffffffffffffe01660200190565b600082601f8301126200253f57600080fd5b8135620025566200255082620024e4565b62002492565b8181528460208386010111156200256c57600080fd5b816020850160208301376000918101602001919091529392505050565b801515811462001c6157600080fd5b600067ffffffffffffffff821115620025b557620025b562002463565b5060051b60200190565b600082601f830112620025d157600080fd5b81356020620025e4620025508362002598565b82815260059290921b840181019181810190868411156200260457600080fd5b8286015b848110156200264957803567ffffffffffffffff8111156200262a5760008081fd5b6200263a8986838b01016200252d565b84525091830191830162002608565b509695505050505050565b600080600080600060a086880312156200266d57600080fd5b853567ffffffffffffffff808211156200268657600080fd5b6200269489838a016200252d565b965060208801359150620026a88262002589565b9094506040870135935060608701359080821115620026c657600080fd5b620026d489838a016200252d565b93506080880135915080821115620026eb57600080fd5b50620026fa88828901620025bf565b9150509295509295909350565b600080604083850312156200271b57600080fd5b8235915060208301356200272f8162002406565b809150509250929050565b6000806000606084860312156200275057600080fd5b83356200275d8162002406565b9250602084013567ffffffffffffffff808211156200277b57600080fd5b62002789878388016200252d565b93506040860135915080821115620027a057600080fd5b50620027af86828701620025bf565b9150509250925092565b600080600060608486031215620027cf57600080fd5b8335620027dc8162002589565b925060208401359150604084013567ffffffffffffffff8111156200280057600080fd5b620027af868287016200252d565b600080600080608085870312156200282557600080fd5b843567ffffffffffffffff808211156200283e57600080fd5b6200284c888389016200252d565b955060208701359150620028608262002589565b90935060408601359250606086013590808211156200287e57600080fd5b506200288d878288016200252d565b91505092959194509250565b60008060008060808587031215620028b057600080fd5b8435620028bd8162002589565b935060208501359250604085013567ffffffffffffffff80821115620028e257600080fd5b620028f0888389016200252d565b935060608701359150808211156200290757600080fd5b506200288d87828801620025bf565b600080602083850312156200292a57600080fd5b823567ffffffffffffffff808211156200294357600080fd5b818501915085601f8301126200295857600080fd5b8135818111156200296857600080fd5b8660208260051b85010111156200297e57600080fd5b60209290920196919550909350505050565b60005b83811015620029ad57818101518382015260200162002993565b83811115620029bd576000848401525b50505050565b60008151808452620029dd81602086016020860162002990565b601f017fffffffffffffffffffffffffffffffffffffffffffffffffffffffffffffffe0169290920160200192915050565b6000602080830181845280855180835260408601915060408160051b870101925083870160005b8281101562002a86577fffffffffffffffffffffffffffffffffffffffffffffffffffffffffffffffc088860301845262002a73858351620029c3565b9450928501929085019060010162002a36565b5092979650505050505050565b6000806040838503121562002aa757600080fd5b823562002ab48162002406565b9150602083013567ffffffffffffffff81111562002ad157600080fd5b62002adf858286016200252d565b9150509250929050565b6000806040838503121562002afd57600080fd5b823562002b0a8162002406565b915060208301356200272f8162002406565b60006020828403121562002b2f57600080fd5b5051919050565b60006020828403121562002b4957600080fd5b8151620013e38162002589565b600062002b676200255084620024e4565b905082815283838301111562002b7c57600080fd5b620013e383602083018462002990565b6000602080838503121562002ba057600080fd5b825167ffffffffffffffff8082111562002bb957600080fd5b818501915085601f83011262002bce57600080fd5b815162002bdf620025508262002598565b81815260059190911b8301840190848101908883111562002bff57600080fd5b8585015b8381101562002c525780518581111562002c1d5760008081fd5b8601603f81018b1362002c305760008081fd5b62002c438b898301516040840162002b56565b84525091860191860162002c03565b5098975050505050505050565b6000825162002c7381846020870162002990565b9190910192915050565b7f4e487b7100000000000000000000000000000000000000000000000000000000600052600160045260246000fd5b60007fffffffffffffffffffffffffffffffffffffffffffffffffffffffffffffffff82141562002d06577f4e487b7100000000000000000000000000000000000000000000000000000000600052601160045260246000fd5b5060010190565b7f4e487b7100000000000000000000000000000000000000000000000000000000600052603260045260246000fd5b60008083357fffffffffffffffffffffffffffffffffffffffffffffffffffffffffffffffe184360301811262002d7257600080fd5b83018035915067ffffffffffffffff82111562002d8e57600080fd5b60200191503681900382131562002da457600080fd5b9250929050565b8183823760009101908152919050565b60006020828403121562002dce57600080fd5b815167ffffffffffffffff81111562002de657600080fd5b8201601f8101841362002df857600080fd5b62002e098482516020840162002b56565b949350505050565b602081526000620013e36020830184620029c3565b7fffffffffffffffffffffffffffffffffffffffff0000000000000000000000008360601b1681526000825162002e6581601485016020870162002990565b919091016014019392505050565b7f606161002960003933600081816002015260310152602080380360803960805181527f60005560616000f3fe337f0000000000000000000000000000000000000000006020820152741415602e57600035600055005b337f00000000000060408201526514606057600060608201527f5460005260206000f35b0000000000000000000000000000000000000000000060808201526000825162002f2081608a85016020870162002990565b91909101608a0192915050565b6000835162002f4181846020880162002990565b83519083019062002f5781836020880162002990565b01949350505050565b73ffffffffffffffffffffffffffffffffffffffff8316815260406020820152600062002e096040830184620029c356fe6080604052604051608a380380608a833981016040819052601e91605b565b60405169363d3d373d3d3d363d7360b01b8152606082901b600a82018190526e5af43d82803e903d91602b57fd5bf360881b601e83015290602d81f35b600060208284031215606c57600080fd5b81516001600160a01b0381168114608257600080fd5b939250505056fe60806040526040516101fd3803806101fd83398101604081905261002291610112565b6000826001600160a01b03168260405161003c91906101e0565b600060405180830381855af49150503d8060008114610077576040519150601f19603f3d011682016040523d82523d6000602084013e61007c565b606091505b505090508061008f573d6000803e3d6000fd5b60405169363d3d373d3d3d363d7360b01b8152606084901b600a82018190526e5af43d82803e903d91602b57fd5bf360881b601e83015290602d81f35b634e487b7160e01b600052604160045260246000fd5b60005b838110156100fd5781810151838201526020016100e5565b8381111561010c576000848401525b50505050565b6000806040838503121561012557600080fd5b82516001600160a01b038116811461013c57600080fd5b60208401519092506001600160401b038082111561015957600080fd5b818501915085601f83011261016d57600080fd5b81518181111561017f5761017f6100cc565b604051601f8201601f19908116603f011681019083821181831017156101a7576101a76100cc565b816040528281528860208487010111156101c057600080fd5b6101d18360208301602088016100e2565b80955050505050509250929050565b600082516101f28184602087016100e2565b919091019291505056fe6080604052604051609f380380609f833981016040819052601e916070565b604051653d3d3d3d3d7360d01b8152606082901b600682018190527f5afa3d82803e368260203750808036602082515af43d82803e903d91603a57fd601a830152615bf360f01b603a83015290603c81f35b600060208284031215608157600080fd5b81516001600160a01b0381168114609757600080fd5b939250505056fe60806040526040516102aa3803806102aa833981016040819052610022916101a7565b6040516000906001600160a01b0384169082818181855afa9150503d8060008114610069576040519150601f19603f3d011682016040523d82523d6000602084013e61006e565b606091505b509150506000818060200190518101906100889190610269565b90506000816001600160a01b0316846040516100a4919061028d565b600060405180830381855af49150503d80600081146100df576040519150601f19603f3d011682016040523d82523d6000602084013e6100e4565b606091505b50509050806100f7573d6000803e3d6000fd5b604051653d3d3d3d3d7360d01b8152606086901b600682018190527f5afa3d82803e368260203750808036602082515af43d82803e903d91603a57fd601a830152615bf360f01b603a83015290603c81f35b6001600160a01b038116811461015e57600080fd5b50565b634e487b7160e01b600052604160045260246000fd5b60005b8381101561019257818101518382015260200161017a565b838111156101a1576000848401525b50505050565b600080604083850312156101ba57600080fd5b82516101c581610149565b60208401519092506001600160401b03808211156101e257600080fd5b818501915085601f8301126101f657600080fd5b81518181111561020857610208610161565b604051601f8201601f19908116603f0116810190838211818310171561023057610230610161565b8160405282815288602084870101111561024957600080fd5b61025a836020830160208801610177565b80955050505050509250929050565b60006020828403121561027b57600080fd5b815161028681610149565b9392505050565b6000825161029f818460208701610177565b919091019291505056fea2646970667358221220cf700d741ec17b81a9cd412a255e60e875e0ce5611be2b853e00ddb9c5f15ecf64736f6c634300080b0033",
  "devdoc": {
    "author": "yoonsung.eth",
    "details": "The template to be registered may or may not have an `initialize` function. However, at least a ERC173 and multicall for directed at self must be implemented.",
    "kind": "dev",
    "methods": {
      "addTemplate(address)": {
        "details": "  ,     .    .",
        "params": {
          "templateAddr": "   "
        }
      },
      "changeFee(uint256)": {
        "params": {
          "newFee": " "
        }
      },
      "changeFeeTo(address)": {
        "params": {
          "newFeeTo": "  "
        }
      },
      "clone(address,bytes,bytes[])": {
        "params": {
          "calls": "  ,    ",
          "initializationCallData": "    ",
          "templateAddr": "     "
        }
      },
      "collect(address)": {
        "params": {
          "tokenAddr": "  "
        }
      },
      "compute(bool,bytes32,bytes)": {
        "details": "       ,      .",
        "params": {
          "initializationCallData": "       ",
          "isBeacon": "     .",
          "templateId": "  template id"
        }
      },
      "computeClone(address,bytes)": {
        "details": "       ,      .",
        "params": {
          "initializationCallData": "       ",
          "templateAddr": "  template id"
        }
      },
      "computeWithSeed(string,bool,bytes32,bytes)": {
        "details": "       ,      .",
        "params": {
          "initializationCallData": "       ",
          "isBeacon": "     .",
          "seed": "  seed ",
          "templateId": "  template id"
        }
      },
      "constructor": {
        "params": {
          "feeAmount": "basic fee for ether amount",
          "feeToAddr": "fee collector address"
        }
      },
      "deploy(bool,bytes32,bytes,bytes[])": {
        "details": "          , initializationCallData   serialize  .      multicall      .",
        "params": {
          "calls": "  ,     ",
          "initializationCallData": "       ",
          "isBeacon": "     .",
          "templateId": "  template id"
        }
      },
      "deployWithSeed(string,bool,bytes32,bytes,bytes[])": {
        "details": "          , initializationCallData   serialize  .      multicall      .",
        "params": {
          "calls": "  ,     ",
          "initializationCallData": "       ",
          "isBeacon": "     .",
          "seed": "     seed",
          "templateId": "  template id"
        }
      },
      "getPrice()": {
        "details": "       ,      .",
        "returns": {
          "price": "   ."
        }
      },
      "removeTemplate(bytes32)": {
        "params": {
          "key": "  "
        }
      },
      "transferOwnership(address)": {
        "params": {
          "newOwner": "The address of the new owner of the contract"
        }
      },
      "updateTemplate(bytes32,address)": {
        "params": {
          "key": "   ",
          "templateAddr": "   ,     "
        }
      }
    },
    "title": "Factory V1",
    "version": 1
  },
  "userdoc": {
    "kind": "user",
    "methods": {
      "addTemplate(address)": {
        "notice": "         ."
      },
      "baseFee()": {
        "notice": "base fee"
      },
      "changeFee(uint256)": {
        "notice": "  "
      },
      "changeFeeTo(address)": {
        "notice": "   "
      },
      "clone(address,bytes,bytes[])": {
        "notice": "Factori.eth    Template  Minimal Proxy ."
      },
      "collect(address)": {
        "notice": "Factori.eth  ETH  ,    "
      },
      "compute(bool,bytes32,bytes)": {
        "notice": "template id    minimal proxy minimal beacon proxy     "
      },
      "computeClone(address,bytes)": {
        "notice": "Factori.eth    Template  minimal proxy     "
      },
      "computeWithSeed(string,bool,bytes32,bytes)": {
        "notice": "template id Seed ,    minimal proxy minimal beacon proxy     "
      },
      "constructor": {
        "notice": "requiring on deploy, allowlist contract."
      },
      "deploy(bool,bytes32,bytes,bytes[])": {
        "notice": "template id  minimal proxy minimal beacon proxy  ."
      },
      "deployWithSeed(string,bool,bytes32,bytes,bytes[])": {
        "notice": "template id   seed  minimal proxy minimal beacon proxy  ."
      },
      "feeTo()": {
        "notice": "fee collector"
      },
      "getPrice()": {
        "notice": "template id        "
      },
      "nonce()": {
        "notice": "template count."
      },
      "owner()": {
        "notice": "Get the address of the owner"
      },
      "removeTemplate(bytes32)": {
        "notice": "   "
      },
      "templates(bytes32)": {
        "notice": "template key for template info."
      },
      "transferOwnership(address)": {
        "notice": "Set the address of the new owner of the contract"
      },
      "updateTemplate(bytes32,address)": {
        "notice": "    ,           ."
      }
    },
    "notice": "Abstract reusable contract into template and deploy them in small sizes `minimal proxy` and `beacon proxy`. This contract can receive a fee lower than the deploy cost, and registered addresses do not have to pay the fee. Beacon is managed in this contract, it can be useful if you need a scalable upgrade through the `beacon proxy`.",
    "version": 1
  },
  "storageLayout": {
    "storage": [
      {
        "astId": 2286,
        "contract": "contracts/FactoryV1.sol:FactoryV1",
        "label": "owner",
        "offset": 0,
        "slot": "0",
        "type": "t_address"
      },
      {
        "astId": 2498,
        "contract": "contracts/FactoryV1.sol:FactoryV1",
        "label": "templates",
        "offset": 0,
        "slot": "1",
        "type": "t_mapping(t_bytes32,t_struct(TemplateInfo)3146_storage)"
      },
      {
        "astId": 2503,
        "contract": "contracts/FactoryV1.sol:FactoryV1",
        "label": "nonceForTemplate",
        "offset": 0,
        "slot": "2",
        "type": "t_mapping(t_address,t_uint256)"
      },
      {
        "astId": 2507,
        "contract": "contracts/FactoryV1.sol:FactoryV1",
        "label": "nonce",
        "offset": 0,
        "slot": "3",
        "type": "t_uint256"
      },
      {
        "astId": 2510,
        "contract": "contracts/FactoryV1.sol:FactoryV1",
        "label": "baseFee",
        "offset": 0,
        "slot": "4",
        "type": "t_uint256"
      },
      {
        "astId": 2513,
        "contract": "contracts/FactoryV1.sol:FactoryV1",
        "label": "feeTo",
        "offset": 0,
        "slot": "5",
        "type": "t_address_payable"
      }
    ],
    "types": {
      "t_address": {
        "encoding": "inplace",
        "label": "address",
        "numberOfBytes": "20"
      },
      "t_address_payable": {
        "encoding": "inplace",
        "label": "address payable",
        "numberOfBytes": "20"
      },
      "t_bytes32": {
        "encoding": "inplace",
        "label": "bytes32",
        "numberOfBytes": "32"
      },
      "t_mapping(t_address,t_uint256)": {
        "encoding": "mapping",
        "key": "t_address",
        "label": "mapping(address => uint256)",
        "numberOfBytes": "32",
        "value": "t_uint256"
      },
      "t_mapping(t_bytes32,t_struct(TemplateInfo)3146_storage)": {
        "encoding": "mapping",
        "key": "t_bytes32",
        "label": "mapping(bytes32 => struct IFactory.TemplateInfo)",
        "numberOfBytes": "32",
        "value": "t_struct(TemplateInfo)3146_storage"
      },
      "t_struct(TemplateInfo)3146_storage": {
        "encoding": "inplace",
        "label": "struct IFactory.TemplateInfo",
        "members": [
          {
            "astId": 3143,
            "contract": "contracts/FactoryV1.sol:FactoryV1",
            "label": "template",
            "offset": 0,
            "slot": "0",
            "type": "t_address"
          },
          {
            "astId": 3145,
            "contract": "contracts/FactoryV1.sol:FactoryV1",
            "label": "btemplate",
            "offset": 0,
            "slot": "1",
            "type": "t_address"
          }
        ],
        "numberOfBytes": "64"
      },
      "t_uint256": {
        "encoding": "inplace",
        "label": "uint256",
        "numberOfBytes": "32"
      }
    }
  }
}