{
  "address": "0x106449177BA96Ee198b147F91009Cbcd134e6CED",
  "abi": [
    {
      "anonymous": false,
      "inputs": [
        {
          "indexed": false,
          "internalType": "uint256",
          "name": "index",
          "type": "uint256"
        },
        {
          "indexed": false,
          "internalType": "address",
          "name": "account",
          "type": "address"
        },
        {
          "indexed": false,
          "internalType": "uint256",
          "name": "amount",
          "type": "uint256"
        }
      ],
      "name": "Claimed",
      "type": "event"
    },
    {
      "anonymous": false,
      "inputs": [
        {
          "indexed": false,
          "internalType": "address",
          "name": "token",
          "type": "address"
        },
        {
          "indexed": false,
          "internalType": "bytes32",
          "name": "merkleroot",
          "type": "bytes32"
        }
      ],
      "name": "Finalized",
      "type": "event"
    },
    {
      "anonymous": false,
      "inputs": [
        {
          "indexed": true,
          "internalType": "address",
          "name": "previousOwner",
          "type": "address"
        },
        {
          "indexed": true,
          "internalType": "address",
          "name": "newOwner",
          "type": "address"
        }
      ],
      "name": "OwnershipTransferred",
      "type": "event"
    },
    {
      "inputs": [
        {
          "internalType": "uint256",
          "name": "index",
          "type": "uint256"
        },
        {
          "internalType": "address",
          "name": "account",
          "type": "address"
        },
        {
          "internalType": "uint256",
          "name": "amount",
          "type": "uint256"
        },
        {
          "internalType": "bytes32[]",
          "name": "merkleProof",
          "type": "bytes32[]"
        }
      ],
      "name": "claim",
      "outputs": [],
      "stateMutability": "nonpayable",
      "type": "function"
    },
    {
      "inputs": [],
      "name": "finalize",
      "outputs": [],
      "stateMutability": "nonpayable",
      "type": "function"
    },
    {
      "inputs": [
        {
          "internalType": "address",
          "name": "tokenAddr",
          "type": "address"
        },
        {
          "internalType": "bytes32",
          "name": "merkleRoot",
          "type": "bytes32"
        }
      ],
      "name": "initialize",
      "outputs": [],
      "stateMutability": "nonpayable",
      "type": "function"
    },
    {
      "inputs": [
        {
          "internalType": "uint256",
          "name": "index",
          "type": "uint256"
        }
      ],
      "name": "isClaimed",
      "outputs": [
        {
          "internalType": "bool",
          "name": "",
          "type": "bool"
        }
      ],
      "stateMutability": "view",
      "type": "function"
    },
    {
      "inputs": [
        {
          "internalType": "bytes[]",
          "name": "callData",
          "type": "bytes[]"
        }
      ],
      "name": "multicall",
      "outputs": [
        {
          "internalType": "bytes[]",
          "name": "returnData",
          "type": "bytes[]"
        }
      ],
      "stateMutability": "nonpayable",
      "type": "function"
    },
    {
      "inputs": [],
      "name": "owner",
      "outputs": [
        {
          "internalType": "address",
          "name": "",
          "type": "address"
        }
      ],
      "stateMutability": "view",
      "type": "function"
    },
    {
      "inputs": [],
      "name": "resignOwnership",
      "outputs": [],
      "stateMutability": "nonpayable",
      "type": "function"
    },
    {
      "inputs": [],
      "name": "root",
      "outputs": [
        {
          "internalType": "bytes32",
          "name": "",
          "type": "bytes32"
        }
      ],
      "stateMutability": "view",
      "type": "function"
    },
    {
      "inputs": [
        {
          "internalType": "bytes4",
          "name": "interfaceID",
          "type": "bytes4"
        }
      ],
      "name": "supportsInterface",
      "outputs": [
        {
          "internalType": "bool",
          "name": "",
          "type": "bool"
        }
      ],
      "stateMutability": "pure",
      "type": "function"
    },
    {
      "inputs": [],
      "name": "token",
      "outputs": [
        {
          "internalType": "contract IERC20",
          "name": "",
          "type": "address"
        }
      ],
      "stateMutability": "view",
      "type": "function"
    },
    {
      "inputs": [
        {
          "internalType": "address",
          "name": "newOwner",
          "type": "address"
        }
      ],
      "name": "transferOwnership",
      "outputs": [],
      "stateMutability": "nonpayable",
      "type": "function"
    },
    {
      "inputs": [
        {
          "internalType": "bytes32",
          "name": "merkleRoot",
          "type": "bytes32"
        }
      ],
      "name": "updateTree",
      "outputs": [],
      "stateMutability": "nonpayable",
      "type": "function"
    }
  ],
  "transactionHash": "0x5b8b1527641e69800898193437e0de16f6423753f9612613cb6ce402f958e023",
  "args": [],
  "solcInputHash": "307295c9735bcaf37b532e4fd0ce1e18",
  "bytecode": "0x608060405234801561001057600080fd5b50600080546001600160a01b0319163390811782556040519091907f8be0079c531659141344cd1fd0a4f28419497f9722a3daafe3b4186f6b6457e0908290a36114708061005f6000396000f3fe608060405234801561001057600080fd5b50600436106100d45760003560e01c8063ac9650d811610081578063ed0c70911161005b578063ed0c7091146101d3578063f2fde38b146101db578063fc0c546a146101ee57600080fd5b8063ac9650d814610189578063be13f47c146101a9578063ebf0c717146101bc57600080fd5b80634bb278f3116100b25780634bb278f3146101295780638da5cb5b146101315780639e34070f1461017657600080fd5b806301ffc9a7146100d95780630bc00849146101015780632e7ba6ef14610116575b600080fd5b6100ec6100e7366004611015565b61020e565b60405190151581526020015b60405180910390f35b61011461010f366004610ffc565b6102f3565b005b61011461012436600461113b565b6103e5565b610114610694565b6000546101519073ffffffffffffffffffffffffffffffffffffffff1681565b60405173ffffffffffffffffffffffffffffffffffffffff90911681526020016100f8565b6100ec610184366004610ffc565b6108c1565b61019c610197366004610f98565b610902565b6040516100f891906111fd565b6101146101b7366004610f6e565b610a74565b6101c560025481565b6040519081526020016100f8565b610114610b96565b6101146101e9366004610f4c565b610c6b565b6001546101519073ffffffffffffffffffffffffffffffffffffffff1681565b60007fffffffff0000000000000000000000000000000000000000000000000000000082167f01ffc9a70000000000000000000000000000000000000000000000000000000014806102a157507fffffffff0000000000000000000000000000000000000000000000000000000082167f7f5828d000000000000000000000000000000000000000000000000000000000145b806102ed57507fffffffff0000000000000000000000000000000000000000000000000000000082167fac9650d800000000000000000000000000000000000000000000000000000000145b92915050565b60005473ffffffffffffffffffffffffffffffffffffffff163314610379576040517f08c379a000000000000000000000000000000000000000000000000000000000815260206004820152601860248201527f4f776e6572736869702f4e6f742d417574686f72697a6564000000000000000060448201526064015b60405180910390fd5b806103e0576040517f08c379a000000000000000000000000000000000000000000000000000000000815260206004820152601f60248201527f4d65726b6c654469737472696275746f722f496e76616c696420496e707574006044820152606401610370565b600255565b6103ee856108c1565b1561047b576040517f08c379a000000000000000000000000000000000000000000000000000000000815260206004820152602160248201527f4d65726b6c654469737472696275746f722f416c726561647920636c61696d6560448201527f64000000000000000000000000000000000000000000000000000000000000006064820152608401610370565b60408051602081018790527fffffffffffffffffffffffffffffffffffffffff000000000000000000000000606087901b16918101919091526054810184905260009060740160405160208183030381529060405280519060200120905061051a838380806020026020016040519081016040528093929190818152602001838360200280828437600092019190915250506002549150849050610d75565b610580576040517f08c379a000000000000000000000000000000000000000000000000000000000815260206004820152601f60248201527f4d65726b6c654469737472696275746f722f496e76616c69642070726f6f66006044820152606401610370565b61058986610e24565b6001546040517fa9059cbb00000000000000000000000000000000000000000000000000000000815273ffffffffffffffffffffffffffffffffffffffff8781166004830152602482018790529091169063a9059cbb90604401602060405180830381600087803b1580156105fd57600080fd5b505af1158015610611573d6000803e3d6000fd5b505050506040513d601f19601f820116820180604052508101906106359190610fda565b506040805187815273ffffffffffffffffffffffffffffffffffffffff871660208201529081018590527f4ec90e965519d92681267467f775ada5bd214aa92c0dc93d90a5e880ce9ed0269060600160405180910390a1505050505050565b60005473ffffffffffffffffffffffffffffffffffffffff163314610715576040517f08c379a000000000000000000000000000000000000000000000000000000000815260206004820152601860248201527f4f776e6572736869702f4e6f742d417574686f72697a656400000000000000006044820152606401610370565b6001546040517f70a0823100000000000000000000000000000000000000000000000000000000815230600482015260009173ffffffffffffffffffffffffffffffffffffffff16906370a082319060240160206040518083038186803b15801561077f57600080fd5b505afa158015610793573d6000803e3d6000fd5b505050506040513d601f19601f820116820180604052508101906107b79190611122565b6001546040517fa9059cbb0000000000000000000000000000000000000000000000000000000081523360048201526024810183905291925073ffffffffffffffffffffffffffffffffffffffff169063a9059cbb90604401602060405180830381600087803b15801561082a57600080fd5b505af115801561083e573d6000803e3d6000fd5b505050506040513d601f19601f820116820180604052508101906108629190610fda565b50600060028190556001546040805173ffffffffffffffffffffffffffffffffffffffff909216825260208201929092527f9d7c9993665b78876f73d391eb3995778a8b9c234f8ea823436810222bd90a48910160405180910390a150565b6000806108d0610100846112f5565b905060006108e061010085611399565b60009283526003602052604090922054600190921b9182169091149392505050565b60608167ffffffffffffffff81111561091d5761091d61140b565b60405190808252806020026020018201604052801561095057816020015b606081526020019060019003908161093b5790505b50905060005b82811015610a6d5760008030868685818110610974576109746113dc565b90506020028101906109869190611290565b6040516109949291906111ed565b600060405180830381855af49150503d80600081146109cf576040519150601f19603f3d011682016040523d82523d6000602084013e6109d4565b606091505b509150915081610a3a576044815110156109ed57600080fd5b60048101905080806020019051810190610a079190611057565b6040517f08c379a0000000000000000000000000000000000000000000000000000000008152600401610370919061127d565b80848481518110610a4d57610a4d6113dc565b602002602001018190525050508080610a6590611339565b915050610956565b5092915050565b60005474010000000000000000000000000000000000000000900460ff161580610a9d5750303b155b610b03576040517f08c379a000000000000000000000000000000000000000000000000000000000815260206004820152601f60248201527f496e697469616c697a65722f416c726561647920496e697469616c697a6564006044820152606401610370565b600080547fffffffffffffffffffffff00ffffffffffffffffffffffffffffffffffffffff1674010000000000000000000000000000000000000000179055610b4b33610e62565b600180547fffffffffffffffffffffffff00000000000000000000000000000000000000001673ffffffffffffffffffffffffffffffffffffffff9390931692909217909155600255565b60005473ffffffffffffffffffffffffffffffffffffffff163314610c17576040517f08c379a000000000000000000000000000000000000000000000000000000000815260206004820152601860248201527f4f776e6572736869702f4e6f742d417574686f72697a656400000000000000006044820152606401610370565b600080547fffffffffffffffffffffffff000000000000000000000000000000000000000016815560405133907f8be0079c531659141344cd1fd0a4f28419497f9722a3daafe3b4186f6b6457e0908390a3565b60005473ffffffffffffffffffffffffffffffffffffffff163314610cec576040517f08c379a000000000000000000000000000000000000000000000000000000000815260206004820152601860248201527f4f776e6572736869702f4e6f742d417574686f72697a656400000000000000006044820152606401610370565b73ffffffffffffffffffffffffffffffffffffffff8116610d69576040517f08c379a000000000000000000000000000000000000000000000000000000000815260206004820152601a60248201527f4f776e6572736869702f4e6f742d416c6c6f7765642d5a65726f0000000000006044820152606401610370565b610d7281610e62565b50565b600081815b8551811015610e19576000868281518110610d9757610d976113dc565b60200260200101519050808311610dd9576040805160208101859052908101829052606001604051602081830303815290604052805190602001209250610e06565b60408051602081018390529081018490526060016040516020818303038152906040528051906020012092505b5080610e1181611339565b915050610d7a565b509092149392505050565b6000610e32610100836112f5565b90506000610e4261010084611399565b6000928352600360205260409092208054600190931b9092179091555050565b6000805473ffffffffffffffffffffffffffffffffffffffff8381167fffffffffffffffffffffffff0000000000000000000000000000000000000000831681178455604051919092169283917f8be0079c531659141344cd1fd0a4f28419497f9722a3daafe3b4186f6b6457e09190a35050565b803573ffffffffffffffffffffffffffffffffffffffff81168114610efb57600080fd5b919050565b60008083601f840112610f1257600080fd5b50813567ffffffffffffffff811115610f2a57600080fd5b6020830191508360208260051b8501011115610f4557600080fd5b9250929050565b600060208284031215610f5e57600080fd5b610f6782610ed7565b9392505050565b60008060408385031215610f8157600080fd5b610f8a83610ed7565b946020939093013593505050565b60008060208385031215610fab57600080fd5b823567ffffffffffffffff811115610fc257600080fd5b610fce85828601610f00565b90969095509350505050565b600060208284031215610fec57600080fd5b81518015158114610f6757600080fd5b60006020828403121561100e57600080fd5b5035919050565b60006020828403121561102757600080fd5b81357fffffffff0000000000000000000000000000000000000000000000000000000081168114610f6757600080fd5b60006020828403121561106957600080fd5b815167ffffffffffffffff8082111561108157600080fd5b818401915084601f83011261109557600080fd5b8151818111156110a7576110a761140b565b604051601f82017fffffffffffffffffffffffffffffffffffffffffffffffffffffffffffffffe0908116603f011681019083821181831017156110ed576110ed61140b565b8160405282815287602084870101111561110657600080fd5b611117836020830160208801611309565b979650505050505050565b60006020828403121561113457600080fd5b5051919050565b60008060008060006080868803121561115357600080fd5b8535945061116360208701610ed7565b935060408601359250606086013567ffffffffffffffff81111561118657600080fd5b61119288828901610f00565b969995985093965092949392505050565b600081518084526111bb816020860160208601611309565b601f017fffffffffffffffffffffffffffffffffffffffffffffffffffffffffffffffe0169290920160200192915050565b8183823760009101908152919050565b6000602080830181845280855180835260408601915060408160051b870101925083870160005b82811015611270577fffffffffffffffffffffffffffffffffffffffffffffffffffffffffffffffc088860301845261125e8583516111a3565b94509285019290850190600101611224565b5092979650505050505050565b602081526000610f6760208301846111a3565b60008083357fffffffffffffffffffffffffffffffffffffffffffffffffffffffffffffffe18436030181126112c557600080fd5b83018035915067ffffffffffffffff8211156112e057600080fd5b602001915036819003821315610f4557600080fd5b600082611304576113046113ad565b500490565b60005b8381101561132457818101518382015260200161130c565b83811115611333576000848401525b50505050565b60007fffffffffffffffffffffffffffffffffffffffffffffffffffffffffffffffff821415611392577f4e487b7100000000000000000000000000000000000000000000000000000000600052601160045260246000fd5b5060010190565b6000826113a8576113a86113ad565b500690565b7f4e487b7100000000000000000000000000000000000000000000000000000000600052601260045260246000fd5b7f4e487b7100000000000000000000000000000000000000000000000000000000600052603260045260246000fd5b7f4e487b7100000000000000000000000000000000000000000000000000000000600052604160045260246000fdfea2646970667358221220ff73e221d229fb08615ee83df211467af9db83355cea7e7f31314147c78899ce64736f6c63430008070033",
  "devdoc": {
    "kind": "dev",
    "methods": {
      "supportsInterface(bytes4)": {
        "details": "Interface identification is specified in ERC-165. This function  uses less than 30,000 gas.",
        "params": {
          "interfaceID": "The interface identifier, as specified in ERC-165"
        },
        "returns": {
          "_0": "`true` if the contract implements `interfaceID` and  `interfaceID` is not 0xffffffff, `false` otherwise"
        }
      },
      "transferOwnership(address)": {
        "params": {
          "newOwner": "The address of the new owner of the contract"
        }
      }
    },
    "version": 1
  },
  "userdoc": {
    "kind": "user",
    "methods": {
      "finalize()": {
        "notice": "배포 종료 남은 토큰을 오너에게 전송하고, 가스를 낭비하지 않도록 MerkleRoot를 0으로 변경한다."
      },
      "owner()": {
        "notice": "Get the address of the owner"
      },
      "supportsInterface(bytes4)": {
        "notice": "Query if a contract implements an interface"
      },
      "transferOwnership(address)": {
        "notice": "Set the address of the new owner of the contract"
      },
      "updateTree(bytes32)": {
        "notice": "클레임된 비트맵을 유지하면서, 새로운 트리를 등록합니다."
      }
    },
    "version": 1
  },
  "storageLayout": {
    "storage": [
      {
        "astId": 1709,
        "contract": "contracts/templates/MerkleDistributor.sol:MerkleDistributor",
        "label": "owner",
        "offset": 0,
        "slot": "0",
        "type": "t_address"
      },
      {
        "astId": 1107,
        "contract": "contracts/templates/MerkleDistributor.sol:MerkleDistributor",
        "label": "_initialized",
        "offset": 20,
        "slot": "0",
        "type": "t_bool"
      },
      {
        "astId": 3107,
        "contract": "contracts/templates/MerkleDistributor.sol:MerkleDistributor",
        "label": "token",
        "offset": 0,
        "slot": "1",
        "type": "t_contract(IERC20)164"
      },
      {
        "astId": 3109,
        "contract": "contracts/templates/MerkleDistributor.sol:MerkleDistributor",
        "label": "root",
        "offset": 0,
        "slot": "2",
        "type": "t_bytes32"
      },
      {
        "astId": 3113,
        "contract": "contracts/templates/MerkleDistributor.sol:MerkleDistributor",
        "label": "claimedIndex",
        "offset": 0,
        "slot": "3",
        "type": "t_mapping(t_uint256,t_uint256)"
      }
    ],
    "types": {
      "t_address": {
        "encoding": "inplace",
        "label": "address",
        "numberOfBytes": "20"
      },
      "t_bool": {
        "encoding": "inplace",
        "label": "bool",
        "numberOfBytes": "1"
      },
      "t_bytes32": {
        "encoding": "inplace",
        "label": "bytes32",
        "numberOfBytes": "32"
      },
      "t_contract(IERC20)164": {
        "encoding": "inplace",
        "label": "contract IERC20",
        "numberOfBytes": "20"
      },
      "t_mapping(t_uint256,t_uint256)": {
        "encoding": "mapping",
        "key": "t_uint256",
        "label": "mapping(uint256 => uint256)",
        "numberOfBytes": "32",
        "value": "t_uint256"
      },
      "t_uint256": {
        "encoding": "inplace",
        "label": "uint256",
        "numberOfBytes": "32"
      }
    }
  }
}