{
  "address": "0xc5aD931a86e1d2044Fe91E2D65f9e393C8FcE158",
  "abi": [
    {
      "anonymous": false,
      "inputs": [
        {
          "indexed": true,
          "internalType": "address",
          "name": "owner",
          "type": "address"
        },
        {
          "indexed": true,
          "internalType": "address",
          "name": "spender",
          "type": "address"
        },
        {
          "indexed": false,
          "internalType": "uint256",
          "name": "value",
          "type": "uint256"
        }
      ],
      "name": "Approval",
      "type": "event"
    },
    {
      "anonymous": false,
      "inputs": [
        {
          "indexed": true,
          "internalType": "address",
          "name": "previousOwner",
          "type": "address"
        },
        {
          "indexed": true,
          "internalType": "address",
          "name": "newOwner",
          "type": "address"
        }
      ],
      "name": "OwnershipTransferred",
      "type": "event"
    },
    {
      "anonymous": false,
      "inputs": [
        {
          "indexed": true,
          "internalType": "address",
          "name": "from",
          "type": "address"
        },
        {
          "indexed": true,
          "internalType": "address",
          "name": "to",
          "type": "address"
        },
        {
          "indexed": false,
          "internalType": "uint256",
          "name": "value",
          "type": "uint256"
        }
      ],
      "name": "Transfer",
      "type": "event"
    },
    {
      "inputs": [],
      "name": "DOMAIN_SEPARATOR",
      "outputs": [
        {
          "internalType": "bytes32",
          "name": "",
          "type": "bytes32"
        }
      ],
      "stateMutability": "view",
      "type": "function"
    },
    {
      "inputs": [],
      "name": "PERMIT_TYPEHASH",
      "outputs": [
        {
          "internalType": "bytes32",
          "name": "",
          "type": "bytes32"
        }
      ],
      "stateMutability": "view",
      "type": "function"
    },
    {
      "inputs": [
        {
          "internalType": "address",
          "name": "",
          "type": "address"
        },
        {
          "internalType": "address",
          "name": "",
          "type": "address"
        }
      ],
      "name": "allowance",
      "outputs": [
        {
          "internalType": "uint256",
          "name": "",
          "type": "uint256"
        }
      ],
      "stateMutability": "view",
      "type": "function"
    },
    {
      "inputs": [
        {
          "internalType": "address",
          "name": "spender",
          "type": "address"
        },
        {
          "internalType": "uint256",
          "name": "value",
          "type": "uint256"
        }
      ],
      "name": "approve",
      "outputs": [
        {
          "internalType": "bool",
          "name": "",
          "type": "bool"
        }
      ],
      "stateMutability": "nonpayable",
      "type": "function"
    },
    {
      "inputs": [
        {
          "internalType": "address",
          "name": "",
          "type": "address"
        }
      ],
      "name": "balanceOf",
      "outputs": [
        {
          "internalType": "uint256",
          "name": "",
          "type": "uint256"
        }
      ],
      "stateMutability": "view",
      "type": "function"
    },
    {
      "inputs": [
        {
          "internalType": "uint256",
          "name": "value",
          "type": "uint256"
        }
      ],
      "name": "burn",
      "outputs": [
        {
          "internalType": "bool",
          "name": "",
          "type": "bool"
        }
      ],
      "stateMutability": "nonpayable",
      "type": "function"
    },
    {
      "inputs": [
        {
          "internalType": "address",
          "name": "from",
          "type": "address"
        },
        {
          "internalType": "uint256",
          "name": "value",
          "type": "uint256"
        }
      ],
      "name": "burnFrom",
      "outputs": [
        {
          "internalType": "bool",
          "name": "",
          "type": "bool"
        }
      ],
      "stateMutability": "nonpayable",
      "type": "function"
    },
    {
      "inputs": [],
      "name": "decimals",
      "outputs": [
        {
          "internalType": "uint8",
          "name": "",
          "type": "uint8"
        }
      ],
      "stateMutability": "view",
      "type": "function"
    },
    {
      "inputs": [
        {
          "internalType": "string",
          "name": "contractVersion",
          "type": "string"
        },
        {
          "internalType": "string",
          "name": "tokenName",
          "type": "string"
        },
        {
          "internalType": "string",
          "name": "tokenSymbol",
          "type": "string"
        },
        {
          "internalType": "uint8",
          "name": "tokenDecimals",
          "type": "uint8"
        }
      ],
      "name": "initialize",
      "outputs": [],
      "stateMutability": "nonpayable",
      "type": "function"
    },
    {
      "inputs": [
        {
          "internalType": "uint256",
          "name": "value",
          "type": "uint256"
        }
      ],
      "name": "mint",
      "outputs": [
        {
          "internalType": "bool",
          "name": "",
          "type": "bool"
        }
      ],
      "stateMutability": "nonpayable",
      "type": "function"
    },
    {
      "inputs": [
        {
          "internalType": "address",
          "name": "to",
          "type": "address"
        },
        {
          "internalType": "uint256",
          "name": "value",
          "type": "uint256"
        }
      ],
      "name": "mintTo",
      "outputs": [
        {
          "internalType": "bool",
          "name": "",
          "type": "bool"
        }
      ],
      "stateMutability": "nonpayable",
      "type": "function"
    },
    {
      "inputs": [
        {
          "internalType": "bytes[]",
          "name": "callData",
          "type": "bytes[]"
        }
      ],
      "name": "multicall",
      "outputs": [
        {
          "internalType": "bytes[]",
          "name": "returnData",
          "type": "bytes[]"
        }
      ],
      "stateMutability": "nonpayable",
      "type": "function"
    },
    {
      "inputs": [],
      "name": "name",
      "outputs": [
        {
          "internalType": "string",
          "name": "",
          "type": "string"
        }
      ],
      "stateMutability": "view",
      "type": "function"
    },
    {
      "inputs": [
        {
          "internalType": "address",
          "name": "",
          "type": "address"
        }
      ],
      "name": "nonces",
      "outputs": [
        {
          "internalType": "uint256",
          "name": "",
          "type": "uint256"
        }
      ],
      "stateMutability": "view",
      "type": "function"
    },
    {
      "inputs": [],
      "name": "owner",
      "outputs": [
        {
          "internalType": "address",
          "name": "",
          "type": "address"
        }
      ],
      "stateMutability": "view",
      "type": "function"
    },
    {
      "inputs": [
        {
          "internalType": "address",
          "name": "_owner",
          "type": "address"
        },
        {
          "internalType": "address",
          "name": "spender",
          "type": "address"
        },
        {
          "internalType": "uint256",
          "name": "value",
          "type": "uint256"
        },
        {
          "internalType": "uint256",
          "name": "deadline",
          "type": "uint256"
        },
        {
          "internalType": "uint8",
          "name": "v",
          "type": "uint8"
        },
        {
          "internalType": "bytes32",
          "name": "r",
          "type": "bytes32"
        },
        {
          "internalType": "bytes32",
          "name": "s",
          "type": "bytes32"
        }
      ],
      "name": "permit",
      "outputs": [],
      "stateMutability": "nonpayable",
      "type": "function"
    },
    {
      "inputs": [],
      "name": "resignOwnership",
      "outputs": [],
      "stateMutability": "nonpayable",
      "type": "function"
    },
    {
      "inputs": [
        {
          "internalType": "bytes4",
          "name": "interfaceId",
          "type": "bytes4"
        }
      ],
      "name": "supportsInterface",
      "outputs": [
        {
          "internalType": "bool",
          "name": "",
          "type": "bool"
        }
      ],
      "stateMutability": "pure",
      "type": "function"
    },
    {
      "inputs": [],
      "name": "symbol",
      "outputs": [
        {
          "internalType": "string",
          "name": "",
          "type": "string"
        }
      ],
      "stateMutability": "view",
      "type": "function"
    },
    {
      "inputs": [],
      "name": "totalSupply",
      "outputs": [
        {
          "internalType": "uint256",
          "name": "",
          "type": "uint256"
        }
      ],
      "stateMutability": "view",
      "type": "function"
    },
    {
      "inputs": [
        {
          "internalType": "address",
          "name": "to",
          "type": "address"
        },
        {
          "internalType": "uint256",
          "name": "value",
          "type": "uint256"
        }
      ],
      "name": "transfer",
      "outputs": [
        {
          "internalType": "bool",
          "name": "",
          "type": "bool"
        }
      ],
      "stateMutability": "nonpayable",
      "type": "function"
    },
    {
      "inputs": [
        {
          "internalType": "address",
          "name": "from",
          "type": "address"
        },
        {
          "internalType": "address",
          "name": "to",
          "type": "address"
        },
        {
          "internalType": "uint256",
          "name": "value",
          "type": "uint256"
        }
      ],
      "name": "transferFrom",
      "outputs": [
        {
          "internalType": "bool",
          "name": "",
          "type": "bool"
        }
      ],
      "stateMutability": "nonpayable",
      "type": "function"
    },
    {
      "inputs": [
        {
          "internalType": "address",
          "name": "newOwner",
          "type": "address"
        }
      ],
      "name": "transferOwnership",
      "outputs": [],
      "stateMutability": "nonpayable",
      "type": "function"
    },
    {
      "inputs": [],
      "name": "version",
      "outputs": [
        {
          "internalType": "string",
          "name": "",
          "type": "string"
        }
      ],
      "stateMutability": "view",
      "type": "function"
    }
  ],
  "transactionHash": "0x4163674e07f4457d13af734a274c8bcc3734240b8d8e4701348efe6775c6ba67",
  "args": [],
  "solcInputHash": "307295c9735bcaf37b532e4fd0ce1e18",
  "bytecode": "0x60a06040527f6e71edae12b1b97f4d1f60370fef10105fa2faae0126114a169c64845d6126c960805234801561003457600080fd5b50600380546001600160a01b031916339081179091556040516000907f8be0079c531659141344cd1fd0a4f28419497f9722a3daafe3b4186f6b6457e0908290a3608051611e2a6100976000396000818161021c01526113690152611e2a6000f3fe608060405234801561001057600080fd5b50600436106101985760003560e01c806379cc6790116100e3578063ac9650d81161008c578063ed0c709111610066578063ed0c7091146103ba578063ed5c475b146103c2578063f2fde38b146103d557600080fd5b8063ac9650d81461035a578063d505accf1461037a578063dd62ed3e1461038f57600080fd5b806395d89b41116100bd57806395d89b411461032c578063a0712d6814610334578063a9059cbb1461034757600080fd5b806379cc6790146102b45780637ecebe00146102c75780638da5cb5b146102e757600080fd5b8063313ce56711610145578063449a52f81161011f578063449a52f81461027957806354fd4d501461028c57806370a082311461029457600080fd5b8063313ce5671461023e5780633644e5151461025d57806342966c681461026657600080fd5b806318160ddd1161017657806318160ddd146101ed57806323b872dd1461020457806330adf81f1461021757600080fd5b806301ffc9a71461019d57806306fdde03146101c5578063095ea7b3146101da575b600080fd5b6101b06101ab366004611922565b6103e8565b60405190151581526020015b60405180910390f35b6101cd6105fd565b6040516101bc9190611b67565b6101b06101e8366004611883565b61068b565b6101f660075481565b6040519081526020016101bc565b6101b06102123660046117dd565b6106a1565b6101f67f000000000000000000000000000000000000000000000000000000000000000081565b60065461024b9060ff1681565b60405160ff90911681526020016101bc565b6101f660005481565b6101b0610274366004611a74565b6106fe565b6101b0610287366004611883565b610806565b6101cd610935565b6101f66102a2366004611788565b60086020526000908152604090205481565b6101b06102c2366004611883565b610942565b6101f66102d5366004611788565b60026020526000908152604090205481565b6003546103079073ffffffffffffffffffffffffffffffffffffffff1681565b60405173ffffffffffffffffffffffffffffffffffffffff90911681526020016101bc565b6101cd610aa1565b6101b0610342366004611a74565b610aae565b6101b0610355366004611883565b610ba4565b61036d6103683660046118ad565b610bb1565b6040516101bc9190611ae7565b61038d610388366004611819565b610d23565b005b6101f661039d3660046117aa565b600960209081526000928352604080842090915290825290205481565b61038d610d3b565b61038d6103d03660046119db565b610e13565b61038d6103e3366004611788565b610f85565b60007fffffffff0000000000000000000000000000000000000000000000000000000082167f942e8b2200000000000000000000000000000000000000000000000000000000148061047b57507fffffffff0000000000000000000000000000000000000000000000000000000082167fe4eb7f9000000000000000000000000000000000000000000000000000000000145b806104c757507fffffffff0000000000000000000000000000000000000000000000000000000082167f3b5a0bf800000000000000000000000000000000000000000000000000000000145b8061051357507fffffffff0000000000000000000000000000000000000000000000000000000082167fd505accf00000000000000000000000000000000000000000000000000000000145b8061055f57507fffffffff0000000000000000000000000000000000000000000000000000000082167f01ffc9a700000000000000000000000000000000000000000000000000000000145b806105ab57507fffffffff0000000000000000000000000000000000000000000000000000000082167f7f5828d000000000000000000000000000000000000000000000000000000000145b806105f757507fffffffff0000000000000000000000000000000000000000000000000000000082167fac9650d800000000000000000000000000000000000000000000000000000000145b92915050565b6004805461060a90611cda565b80601f016020809104026020016040519081016040528092919081815260200182805461063690611cda565b80156106835780601f1061065857610100808354040283529160200191610683565b820191906000526020600020905b81548152906001019060200180831161066657829003601f168201915b505050505081565b600061069833848461108f565b50600192915050565b73ffffffffffffffffffffffffffffffffffffffff831660009081526009602090815260408083203384529091528120805483919083906106e3908490611c93565b909155506106f4905084848461117e565b5060019392505050565b60035460009073ffffffffffffffffffffffffffffffffffffffff163314610787576040517f08c379a000000000000000000000000000000000000000000000000000000000815260206004820152601860248201527f4f776e6572736869702f4e6f742d417574686f72697a6564000000000000000060448201526064015b60405180910390fd5b33600090815260086020526040812080548492906107a6908490611c93565b9250508190555081600760008282546107bf9190611c93565b909155505060405182815260009033907fddf252ad1be2c89b69c2b068fc378daa952ba7f163c4a11628f55a4df523b3ef906020015b60405180910390a35060015b919050565b60035460009073ffffffffffffffffffffffffffffffffffffffff16331461088a576040517f08c379a000000000000000000000000000000000000000000000000000000000815260206004820152601860248201527f4f776e6572736869702f4e6f742d417574686f72697a65640000000000000000604482015260640161077e565b73ffffffffffffffffffffffffffffffffffffffff8316600090815260086020526040812080548492906108bf908490611c7b565b9250508190555081600760008282546108d89190611c7b565b909155505060405182815273ffffffffffffffffffffffffffffffffffffffff8416906000907fddf252ad1be2c89b69c2b068fc378daa952ba7f163c4a11628f55a4df523b3ef906020015b60405180910390a350600192915050565b6001805461060a90611cda565b60035460009073ffffffffffffffffffffffffffffffffffffffff1633146109c6576040517f08c379a000000000000000000000000000000000000000000000000000000000815260206004820152601860248201527f4f776e6572736869702f4e6f742d417574686f72697a65640000000000000000604482015260640161077e565b73ffffffffffffffffffffffffffffffffffffffff8316600090815260096020908152604080832033845290915281208054849290610a06908490611c93565b909155505073ffffffffffffffffffffffffffffffffffffffff831660009081526008602052604081208054849290610a40908490611c93565b9091555050600754610a53908390611c93565b60075560405182815260009073ffffffffffffffffffffffffffffffffffffffff8516907fddf252ad1be2c89b69c2b068fc378daa952ba7f163c4a11628f55a4df523b3ef90602001610924565b6005805461060a90611cda565b60035460009073ffffffffffffffffffffffffffffffffffffffff163314610b32576040517f08c379a000000000000000000000000000000000000000000000000000000000815260206004820152601860248201527f4f776e6572736869702f4e6f742d417574686f72697a65640000000000000000604482015260640161077e565b3360009081526008602052604081208054849290610b51908490611c7b565b925050819055508160076000828254610b6a9190611c7b565b909155505060405182815233906000907fddf252ad1be2c89b69c2b068fc378daa952ba7f163c4a11628f55a4df523b3ef906020016107f5565b600061069833848461117e565b60608167ffffffffffffffff811115610bcc57610bcc611dc5565b604051908082528060200260200182016040528015610bff57816020015b6060815260200190600190039081610bea5790505b50905060005b82811015610d1c5760008030868685818110610c2357610c23611d96565b9050602002810190610c359190611b7a565b604051610c43929190611ad7565b600060405180830381855af49150503d8060008114610c7e576040519150601f19603f3d011682016040523d82523d6000602084013e610c83565b606091505b509150915081610ce957604481511015610c9c57600080fd5b60048101905080806020019051810190610cb69190611964565b6040517f08c379a000000000000000000000000000000000000000000000000000000000815260040161077e9190611b67565b80848481518110610cfc57610cfc611d96565b602002602001018190525050508080610d1490611d2e565b915050610c05565b5092915050565b610d3287878787878787611253565b50505050505050565b60035473ffffffffffffffffffffffffffffffffffffffff163314610dbc576040517f08c379a000000000000000000000000000000000000000000000000000000000815260206004820152601860248201527f4f776e6572736869702f4e6f742d417574686f72697a65640000000000000000604482015260640161077e565b600380547fffffffffffffffffffffffff000000000000000000000000000000000000000016905560405160009033907f8be0079c531659141344cd1fd0a4f28419497f9722a3daafe3b4186f6b6457e0908390a3565b60035474010000000000000000000000000000000000000000900460ff161580610e3c5750303b155b610ea2576040517f08c379a000000000000000000000000000000000000000000000000000000000815260206004820152601f60248201527f496e697469616c697a65722f416c726561647920496e697469616c697a656400604482015260640161077e565b600380547fffffffffffffffffffffff00ffffffffffffffffffffffffffffffffffffffff1674010000000000000000000000000000000000000000179055610eea33611581565b610ef484846115f8565b8251610f07906004906020860190611664565b508151610f1b906005906020850190611664565b50600680547fffffffffffffffffffffffffffffffffffffffffffffffffffffffffffffff001660ff9290921691909117905550503060009081526008602052604090207fffffffffffffffffffffffffffffffffffffffffffffffffffffffffffffffff905550565b60035473ffffffffffffffffffffffffffffffffffffffff163314611006576040517f08c379a000000000000000000000000000000000000000000000000000000000815260206004820152601860248201527f4f776e6572736869702f4e6f742d417574686f72697a65640000000000000000604482015260640161077e565b73ffffffffffffffffffffffffffffffffffffffff8116611083576040517f08c379a000000000000000000000000000000000000000000000000000000000815260206004820152601a60248201527f4f776e6572736869702f4e6f742d416c6c6f7765642d5a65726f000000000000604482015260640161077e565b61108c81611581565b50565b73ffffffffffffffffffffffffffffffffffffffff821630141561110f576040517f08c379a000000000000000000000000000000000000000000000000000000000815260206004820181905260248201527f45524332302f496d706f737369626c652d417070726f76652d746f2d53656c66604482015260640161077e565b73ffffffffffffffffffffffffffffffffffffffff83811660008181526009602090815260408083209487168084529482529182902085905590518481527f8c5be1e5ebec7d5bd14f71427d1e84f3dd0314c0f7b2291e5b200ac8c7c3b92591015b60405180910390a3505050565b73ffffffffffffffffffffffffffffffffffffffff8316600090815260086020526040812080548392906111b3908490611c93565b909155505073ffffffffffffffffffffffffffffffffffffffff8216600090815260086020526040812080548392906111ed908490611c7b565b925050819055508173ffffffffffffffffffffffffffffffffffffffff168373ffffffffffffffffffffffffffffffffffffffff167fddf252ad1be2c89b69c2b068fc378daa952ba7f163c4a11628f55a4df523b3ef8360405161117191815260200190565b73ffffffffffffffffffffffffffffffffffffffff87166112d0576040517f08c379a000000000000000000000000000000000000000000000000000000000815260206004820152601960248201527f455243323631322f496e76616c69642d616464726573732d3000000000000000604482015260640161077e565b4284101561133a576040517f08c379a000000000000000000000000000000000000000000000000000000000815260206004820152601460248201527f455243323631322f457870697265642d74696d65000000000000000000000000604482015260640161077e565b6000805473ffffffffffffffffffffffffffffffffffffffff89168252600260205260408220805461143292917f0000000000000000000000000000000000000000000000000000000000000000918c918c918c918861139983611d2e565b9091555060408051602081019690965273ffffffffffffffffffffffffffffffffffffffff94851690860152929091166060840152608083015260a082015260c0810188905260e001604051602081830303815290604052805190602001206040517f19010000000000000000000000000000000000000000000000000000000000008152600281019290925260228201526042902090565b6040805160008082526020820180845284905260ff88169282019290925260608101869052608081018590529192509060019060a0016020604051602081039080840390855afa15801561148a573d6000803e3d6000fd5b50506040517fffffffffffffffffffffffffffffffffffffffffffffffffffffffffffffffe0015191505073ffffffffffffffffffffffffffffffffffffffff81161580159061150557508873ffffffffffffffffffffffffffffffffffffffff168173ffffffffffffffffffffffffffffffffffffffff16145b61156b576040517f08c379a000000000000000000000000000000000000000000000000000000000815260206004820152601960248201527f455243323631322f496e76616c69642d5369676e617475726500000000000000604482015260640161077e565b61157689898961108f565b505050505050505050565b6003805473ffffffffffffffffffffffffffffffffffffffff8381167fffffffffffffffffffffffff0000000000000000000000000000000000000000831681179093556040519116919082907f8be0079c531659141344cd1fd0a4f28419497f9722a3daafe3b4186f6b6457e090600090a35050565b805161160b906001906020840190611664565b508151602092830120815191830191909120604080517f8b73c3c69bb8fe3d512ecc4cf759cc79239f7b179b0ffacaa9a75d522b39400f8152938401929092529082015246606082015230608082015260a09020600055565b82805461167090611cda565b90600052602060002090601f01602090048101928261169257600085556116d8565b82601f106116ab57805160ff19168380011785556116d8565b828001600101855582156116d8579182015b828111156116d85782518255916020019190600101906116bd565b506116e49291506116e8565b5090565b5b808211156116e457600081556001016116e9565b803573ffffffffffffffffffffffffffffffffffffffff8116811461080157600080fd5b600082601f83011261173257600080fd5b813561174561174082611c35565b611be6565b81815284602083860101111561175a57600080fd5b816020850160208301376000918101602001919091529392505050565b803560ff8116811461080157600080fd5b60006020828403121561179a57600080fd5b6117a3826116fd565b9392505050565b600080604083850312156117bd57600080fd5b6117c6836116fd565b91506117d4602084016116fd565b90509250929050565b6000806000606084860312156117f257600080fd5b6117fb846116fd565b9250611809602085016116fd565b9150604084013590509250925092565b600080600080600080600060e0888a03121561183457600080fd5b61183d886116fd565b965061184b602089016116fd565b9550604088013594506060880135935061186760808901611777565b925060a0880135915060c0880135905092959891949750929550565b6000806040838503121561189657600080fd5b61189f836116fd565b946020939093013593505050565b600080602083850312156118c057600080fd5b823567ffffffffffffffff808211156118d857600080fd5b818501915085601f8301126118ec57600080fd5b8135818111156118fb57600080fd5b8660208260051b850101111561191057600080fd5b60209290920196919550909350505050565b60006020828403121561193457600080fd5b81357fffffffff00000000000000000000000000000000000000000000000000000000811681146117a357600080fd5b60006020828403121561197657600080fd5b815167ffffffffffffffff81111561198d57600080fd5b8201601f8101841361199e57600080fd5b80516119ac61174082611c35565b8181528560208385010111156119c157600080fd5b6119d2826020830160208601611caa565b95945050505050565b600080600080608085870312156119f157600080fd5b843567ffffffffffffffff80821115611a0957600080fd5b611a1588838901611721565b95506020870135915080821115611a2b57600080fd5b611a3788838901611721565b94506040870135915080821115611a4d57600080fd5b50611a5a87828801611721565b925050611a6960608601611777565b905092959194509250565b600060208284031215611a8657600080fd5b5035919050565b60008151808452611aa5816020860160208601611caa565b601f017fffffffffffffffffffffffffffffffffffffffffffffffffffffffffffffffe0169290920160200192915050565b8183823760009101908152919050565b6000602080830181845280855180835260408601915060408160051b870101925083870160005b82811015611b5a577fffffffffffffffffffffffffffffffffffffffffffffffffffffffffffffffc0888603018452611b48858351611a8d565b94509285019290850190600101611b0e565b5092979650505050505050565b6020815260006117a36020830184611a8d565b60008083357fffffffffffffffffffffffffffffffffffffffffffffffffffffffffffffffe1843603018112611baf57600080fd5b83018035915067ffffffffffffffff821115611bca57600080fd5b602001915036819003821315611bdf57600080fd5b9250929050565b604051601f82017fffffffffffffffffffffffffffffffffffffffffffffffffffffffffffffffe016810167ffffffffffffffff81118282101715611c2d57611c2d611dc5565b604052919050565b600067ffffffffffffffff821115611c4f57611c4f611dc5565b50601f017fffffffffffffffffffffffffffffffffffffffffffffffffffffffffffffffe01660200190565b60008219821115611c8e57611c8e611d67565b500190565b600082821015611ca557611ca5611d67565b500390565b60005b83811015611cc5578181015183820152602001611cad565b83811115611cd4576000848401525b50505050565b600181811c90821680611cee57607f821691505b60208210811415611d28577f4e487b7100000000000000000000000000000000000000000000000000000000600052602260045260246000fd5b50919050565b60007fffffffffffffffffffffffffffffffffffffffffffffffffffffffffffffffff821415611d6057611d60611d67565b5060010190565b7f4e487b7100000000000000000000000000000000000000000000000000000000600052601160045260246000fd5b7f4e487b7100000000000000000000000000000000000000000000000000000000600052603260045260246000fd5b7f4e487b7100000000000000000000000000000000000000000000000000000000600052604160045260246000fdfea264697066735822122023b179fab57f94923e01b94d7a2fe6fbfb07ca379ac0a201b58c82281b9cbb0764736f6c63430008070033",
  "devdoc": {
    "kind": "dev",
    "methods": {
      "permit(address,address,uint256,uint256,uint8,bytes32,bytes32)": {
        "params": {
          "_owner": "Token owner's address (Authorizer)",
          "deadline": "Expiration time, seconds since the epoch",
          "r": "r of the signature",
          "s": "s of the signature",
          "spender": "Spender's address",
          "v": "v of the signature",
          "value": "Amount of allowance"
        }
      },
      "transferOwnership(address)": {
        "params": {
          "newOwner": "The address of the new owner of the contract"
        }
      }
    },
    "version": 1
  },
  "userdoc": {
    "kind": "user",
    "methods": {
      "owner()": {
        "notice": "Get the address of the owner"
      },
      "permit(address,address,uint256,uint256,uint8,bytes32,bytes32)": {
        "notice": "Update allowance with a signed permit"
      },
      "transferOwnership(address)": {
        "notice": "Set the address of the new owner of the contract"
      }
    },
    "version": 1
  },
  "storageLayout": {
    "storage": [
      {
        "astId": 980,
        "contract": "contracts/templates/StandardToken.sol:StandardToken",
        "label": "DOMAIN_SEPARATOR",
        "offset": 0,
        "slot": "0",
        "type": "t_bytes32"
      },
      {
        "astId": 982,
        "contract": "contracts/templates/StandardToken.sol:StandardToken",
        "label": "version",
        "offset": 0,
        "slot": "1",
        "type": "t_string_storage"
      },
      {
        "astId": 986,
        "contract": "contracts/templates/StandardToken.sol:StandardToken",
        "label": "nonces",
        "offset": 0,
        "slot": "2",
        "type": "t_mapping(t_address,t_uint256)"
      },
      {
        "astId": 1709,
        "contract": "contracts/templates/StandardToken.sol:StandardToken",
        "label": "owner",
        "offset": 0,
        "slot": "3",
        "type": "t_address"
      },
      {
        "astId": 1107,
        "contract": "contracts/templates/StandardToken.sol:StandardToken",
        "label": "_initialized",
        "offset": 20,
        "slot": "3",
        "type": "t_bool"
      },
      {
        "astId": 3595,
        "contract": "contracts/templates/StandardToken.sol:StandardToken",
        "label": "name",
        "offset": 0,
        "slot": "4",
        "type": "t_string_storage"
      },
      {
        "astId": 3598,
        "contract": "contracts/templates/StandardToken.sol:StandardToken",
        "label": "symbol",
        "offset": 0,
        "slot": "5",
        "type": "t_string_storage"
      },
      {
        "astId": 3601,
        "contract": "contracts/templates/StandardToken.sol:StandardToken",
        "label": "decimals",
        "offset": 0,
        "slot": "6",
        "type": "t_uint8"
      },
      {
        "astId": 3604,
        "contract": "contracts/templates/StandardToken.sol:StandardToken",
        "label": "totalSupply",
        "offset": 0,
        "slot": "7",
        "type": "t_uint256"
      },
      {
        "astId": 3609,
        "contract": "contracts/templates/StandardToken.sol:StandardToken",
        "label": "balanceOf",
        "offset": 0,
        "slot": "8",
        "type": "t_mapping(t_address,t_uint256)"
      },
      {
        "astId": 3616,
        "contract": "contracts/templates/StandardToken.sol:StandardToken",
        "label": "allowance",
        "offset": 0,
        "slot": "9",
        "type": "t_mapping(t_address,t_mapping(t_address,t_uint256))"
      }
    ],
    "types": {
      "t_address": {
        "encoding": "inplace",
        "label": "address",
        "numberOfBytes": "20"
      },
      "t_bool": {
        "encoding": "inplace",
        "label": "bool",
        "numberOfBytes": "1"
      },
      "t_bytes32": {
        "encoding": "inplace",
        "label": "bytes32",
        "numberOfBytes": "32"
      },
      "t_mapping(t_address,t_mapping(t_address,t_uint256))": {
        "encoding": "mapping",
        "key": "t_address",
        "label": "mapping(address => mapping(address => uint256))",
        "numberOfBytes": "32",
        "value": "t_mapping(t_address,t_uint256)"
      },
      "t_mapping(t_address,t_uint256)": {
        "encoding": "mapping",
        "key": "t_address",
        "label": "mapping(address => uint256)",
        "numberOfBytes": "32",
        "value": "t_uint256"
      },
      "t_string_storage": {
        "encoding": "bytes",
        "label": "string",
        "numberOfBytes": "32"
      },
      "t_uint256": {
        "encoding": "inplace",
        "label": "uint256",
        "numberOfBytes": "32"
      },
      "t_uint8": {
        "encoding": "inplace",
        "label": "uint8",
        "numberOfBytes": "1"
      }
    }
  }
}