{
  "address": "0xEFAaC24C9E90a31FF29B320C83a872a089aA0BE1",
  "abi": [
    {
      "anonymous": false,
      "inputs": [
        {
          "indexed": true,
          "internalType": "address",
          "name": "owner",
          "type": "address"
        },
        {
          "indexed": true,
          "internalType": "address",
          "name": "spender",
          "type": "address"
        },
        {
          "indexed": false,
          "internalType": "uint256",
          "name": "value",
          "type": "uint256"
        }
      ],
      "name": "Approval",
      "type": "event"
    },
    {
      "anonymous": false,
      "inputs": [
        {
          "indexed": true,
          "internalType": "address",
          "name": "previousOwner",
          "type": "address"
        },
        {
          "indexed": true,
          "internalType": "address",
          "name": "newOwner",
          "type": "address"
        }
      ],
      "name": "OwnershipTransferred",
      "type": "event"
    },
    {
      "anonymous": false,
      "inputs": [
        {
          "indexed": true,
          "internalType": "address",
          "name": "from",
          "type": "address"
        },
        {
          "indexed": true,
          "internalType": "address",
          "name": "to",
          "type": "address"
        },
        {
          "indexed": false,
          "internalType": "uint256",
          "name": "value",
          "type": "uint256"
        }
      ],
      "name": "Transfer",
      "type": "event"
    },
    {
      "inputs": [],
      "name": "DOMAIN_SEPARATOR",
      "outputs": [
        {
          "internalType": "bytes32",
          "name": "",
          "type": "bytes32"
        }
      ],
      "stateMutability": "view",
      "type": "function"
    },
    {
      "inputs": [],
      "name": "PERMIT_TYPEHASH",
      "outputs": [
        {
          "internalType": "bytes32",
          "name": "",
          "type": "bytes32"
        }
      ],
      "stateMutability": "view",
      "type": "function"
    },
    {
      "inputs": [
        {
          "internalType": "address",
          "name": "",
          "type": "address"
        },
        {
          "internalType": "address",
          "name": "",
          "type": "address"
        }
      ],
      "name": "allowance",
      "outputs": [
        {
          "internalType": "uint256",
          "name": "",
          "type": "uint256"
        }
      ],
      "stateMutability": "view",
      "type": "function"
    },
    {
      "inputs": [
        {
          "internalType": "address",
          "name": "spender",
          "type": "address"
        },
        {
          "internalType": "uint256",
          "name": "value",
          "type": "uint256"
        }
      ],
      "name": "approve",
      "outputs": [
        {
          "internalType": "bool",
          "name": "",
          "type": "bool"
        }
      ],
      "stateMutability": "nonpayable",
      "type": "function"
    },
    {
      "inputs": [
        {
          "internalType": "address",
          "name": "",
          "type": "address"
        }
      ],
      "name": "balanceOf",
      "outputs": [
        {
          "internalType": "uint256",
          "name": "",
          "type": "uint256"
        }
      ],
      "stateMutability": "view",
      "type": "function"
    },
    {
      "inputs": [
        {
          "internalType": "uint256",
          "name": "value",
          "type": "uint256"
        }
      ],
      "name": "burn",
      "outputs": [
        {
          "internalType": "bool",
          "name": "",
          "type": "bool"
        }
      ],
      "stateMutability": "nonpayable",
      "type": "function"
    },
    {
      "inputs": [
        {
          "internalType": "address",
          "name": "from",
          "type": "address"
        },
        {
          "internalType": "uint256",
          "name": "value",
          "type": "uint256"
        }
      ],
      "name": "burnFrom",
      "outputs": [
        {
          "internalType": "bool",
          "name": "",
          "type": "bool"
        }
      ],
      "stateMutability": "nonpayable",
      "type": "function"
    },
    {
      "inputs": [],
      "name": "decimals",
      "outputs": [
        {
          "internalType": "uint8",
          "name": "",
          "type": "uint8"
        }
      ],
      "stateMutability": "view",
      "type": "function"
    },
    {
      "inputs": [
        {
          "internalType": "bytes",
          "name": "data",
          "type": "bytes"
        }
      ],
      "name": "initialize",
      "outputs": [],
      "stateMutability": "nonpayable",
      "type": "function"
    },
    {
      "inputs": [
        {
          "internalType": "uint256",
          "name": "value",
          "type": "uint256"
        }
      ],
      "name": "mint",
      "outputs": [
        {
          "internalType": "bool",
          "name": "",
          "type": "bool"
        }
      ],
      "stateMutability": "nonpayable",
      "type": "function"
    },
    {
      "inputs": [
        {
          "internalType": "address",
          "name": "to",
          "type": "address"
        },
        {
          "internalType": "uint256",
          "name": "value",
          "type": "uint256"
        }
      ],
      "name": "mintTo",
      "outputs": [
        {
          "internalType": "bool",
          "name": "",
          "type": "bool"
        }
      ],
      "stateMutability": "nonpayable",
      "type": "function"
    },
    {
      "inputs": [
        {
          "internalType": "bytes[]",
          "name": "callData",
          "type": "bytes[]"
        }
      ],
      "name": "multicall",
      "outputs": [
        {
          "internalType": "bytes[]",
          "name": "returnData",
          "type": "bytes[]"
        }
      ],
      "stateMutability": "nonpayable",
      "type": "function"
    },
    {
      "inputs": [],
      "name": "name",
      "outputs": [
        {
          "internalType": "string",
          "name": "",
          "type": "string"
        }
      ],
      "stateMutability": "view",
      "type": "function"
    },
    {
      "inputs": [
        {
          "internalType": "address",
          "name": "",
          "type": "address"
        }
      ],
      "name": "nonces",
      "outputs": [
        {
          "internalType": "uint256",
          "name": "",
          "type": "uint256"
        }
      ],
      "stateMutability": "view",
      "type": "function"
    },
    {
      "inputs": [],
      "name": "owner",
      "outputs": [
        {
          "internalType": "address",
          "name": "",
          "type": "address"
        }
      ],
      "stateMutability": "view",
      "type": "function"
    },
    {
      "inputs": [
        {
          "internalType": "address",
          "name": "owner",
          "type": "address"
        },
        {
          "internalType": "address",
          "name": "spender",
          "type": "address"
        },
        {
          "internalType": "uint256",
          "name": "value",
          "type": "uint256"
        },
        {
          "internalType": "uint256",
          "name": "deadline",
          "type": "uint256"
        },
        {
          "internalType": "uint8",
          "name": "v",
          "type": "uint8"
        },
        {
          "internalType": "bytes32",
          "name": "r",
          "type": "bytes32"
        },
        {
          "internalType": "bytes32",
          "name": "s",
          "type": "bytes32"
        }
      ],
      "name": "permit",
      "outputs": [],
      "stateMutability": "nonpayable",
      "type": "function"
    },
    {
      "inputs": [],
      "name": "resignOwnership",
      "outputs": [],
      "stateMutability": "nonpayable",
      "type": "function"
    },
    {
      "inputs": [
        {
          "internalType": "bytes4",
          "name": "interfaceID",
          "type": "bytes4"
        }
      ],
      "name": "supportsInterface",
      "outputs": [
        {
          "internalType": "bool",
          "name": "",
          "type": "bool"
        }
      ],
      "stateMutability": "pure",
      "type": "function"
    },
    {
      "inputs": [],
      "name": "symbol",
      "outputs": [
        {
          "internalType": "string",
          "name": "",
          "type": "string"
        }
      ],
      "stateMutability": "view",
      "type": "function"
    },
    {
      "inputs": [],
      "name": "totalSupply",
      "outputs": [
        {
          "internalType": "uint256",
          "name": "",
          "type": "uint256"
        }
      ],
      "stateMutability": "view",
      "type": "function"
    },
    {
      "inputs": [
        {
          "internalType": "address",
          "name": "to",
          "type": "address"
        },
        {
          "internalType": "uint256",
          "name": "value",
          "type": "uint256"
        }
      ],
      "name": "transfer",
      "outputs": [
        {
          "internalType": "bool",
          "name": "",
          "type": "bool"
        }
      ],
      "stateMutability": "nonpayable",
      "type": "function"
    },
    {
      "inputs": [
        {
          "internalType": "address",
          "name": "from",
          "type": "address"
        },
        {
          "internalType": "address",
          "name": "to",
          "type": "address"
        },
        {
          "internalType": "uint256",
          "name": "value",
          "type": "uint256"
        }
      ],
      "name": "transferFrom",
      "outputs": [
        {
          "internalType": "bool",
          "name": "",
          "type": "bool"
        }
      ],
      "stateMutability": "nonpayable",
      "type": "function"
    },
    {
      "inputs": [
        {
          "internalType": "address",
          "name": "newOwner",
          "type": "address"
        }
      ],
      "name": "transferOwnership",
      "outputs": [],
      "stateMutability": "nonpayable",
      "type": "function"
    },
    {
      "inputs": [],
      "name": "version",
      "outputs": [
        {
          "internalType": "string",
          "name": "",
          "type": "string"
        }
      ],
      "stateMutability": "view",
      "type": "function"
    }
  ],
  "transactionHash": "0x39048f9a634489e1fac4b381b74b751f2b3052c8ba08cd363284ce27b9ca1d1f",
  "args": [],
  "numDeployments": 1,
  "solcInputHash": "9cb17cafb54a33799e572b3a1d761130",
  "bytecode": "0x60a06040527f6e71edae12b1b97f4d1f60370fef10105fa2faae0126114a169c64845d6126c960805234801561003457600080fd5b50600980546001600160a01b031916339081179091556040516000907f8be0079c531659141344cd1fd0a4f28419497f9722a3daafe3b4186f6b6457e0908290a3608051611f246100976000396000818161021c01526110ea0152611f246000f3fe608060405234801561001057600080fd5b50600436106101985760003560e01c806370a08231116100e3578063a9059cbb1161008c578063dd62ed3e11610066578063dd62ed3e146103a2578063ed0c7091146103cd578063f2fde38b146103d557600080fd5b8063a9059cbb1461035c578063ac9650d81461036f578063d505accf1461038f57600080fd5b80638da5cb5b116100bd5780638da5cb5b146102fc57806395d89b4114610341578063a0712d681461034957600080fd5b806370a08231146102a957806379cc6790146102c95780637ecebe00146102dc57600080fd5b8063313ce56711610145578063439fab911161011f578063439fab9114610279578063449a52f81461028e57806354fd4d50146102a157600080fd5b8063313ce5671461023e5780633644e5151461025d57806342966c681461026657600080fd5b806318160ddd1161017657806318160ddd146101ed57806323b872dd1461020457806330adf81f1461021757600080fd5b806301ffc9a71461019d57806306fdde03146101c5578063095ea7b3146101da575b600080fd5b6101b06101ab3660046117bc565b6103e8565b60405190151581526020015b60405180910390f35b6101cd6105fd565b6040516101bc919061187f565b6101b06101e83660046118b6565b61068b565b6101f660035481565b6040519081526020016101bc565b6101b06102123660046118e0565b6106a1565b6101f67f000000000000000000000000000000000000000000000000000000000000000081565b60025461024b9060ff1681565b60405160ff90911681526020016101bc565b6101f660065481565b6101b061027436600461191c565b6106fe565b61028c610287366004611935565b6107f6565b005b6101b061029c3660046118b6565b610ace565b6101cd610bfb565b6101f66102b73660046119a7565b60046020526000908152604090205481565b6101b06102d73660046118b6565b610c08565b6101f66102ea3660046119a7565b60086020526000908152604090205481565b60095461031c9073ffffffffffffffffffffffffffffffffffffffff1681565b60405173ffffffffffffffffffffffffffffffffffffffff90911681526020016101bc565b6101cd610d5f565b6101b061035736600461191c565b610d6c565b6101b061036a3660046118b6565b610e4b565b61038261037d3660046119c2565b610e58565b6040516101bc9190611a25565b61028c61039d366004611ab6565b610fca565b6101f66103b0366004611b20565b600560209081526000928352604080842090915290825290205481565b61028c6112d2565b61028c6103e33660046119a7565b6113aa565b60007f942e8b22000000000000000000000000000000000000000000000000000000007fffffffff000000000000000000000000000000000000000000000000000000008316148061047b57507fd505accf000000000000000000000000000000000000000000000000000000007fffffffff000000000000000000000000000000000000000000000000000000008316145b806104c757507f7f5828d0000000000000000000000000000000000000000000000000000000007fffffffff000000000000000000000000000000000000000000000000000000008316145b8061051357507f01ffc9a7000000000000000000000000000000000000000000000000000000007fffffffff000000000000000000000000000000000000000000000000000000008316145b8061055f57507fac9650d8000000000000000000000000000000000000000000000000000000007fffffffff000000000000000000000000000000000000000000000000000000008316145b806105ab57507f3b5a0bf8000000000000000000000000000000000000000000000000000000007fffffffff000000000000000000000000000000000000000000000000000000008316145b806105f757507fe4eb7f90000000000000000000000000000000000000000000000000000000007fffffffff000000000000000000000000000000000000000000000000000000008316145b92915050565b6000805461060a90611b53565b80601f016020809104026020016040519081016040528092919081815260200182805461063690611b53565b80156106835780601f1061065857610100808354040283529160200191610683565b820191906000526020600020905b81548152906001019060200180831161066657829003601f168201915b505050505081565b60006106983384846114b4565b50600192915050565b73ffffffffffffffffffffffffffffffffffffffff831660009081526005602090815260408083203384529091528120805483919083906106e3908490611bd6565b909155506106f490508484846115a3565b5060019392505050565b60095460009073ffffffffffffffffffffffffffffffffffffffff163314610787576040517f08c379a000000000000000000000000000000000000000000000000000000000815260206004820152601860248201527f4f776e6572736869702f4e6f742d417574686f72697a6564000000000000000060448201526064015b60405180910390fd5b33600090815260046020526040812080548492906107a6908490611bd6565b909155505060038054839003905560405182815260009033907fddf252ad1be2c89b69c2b068fc378daa952ba7f163c4a11628f55a4df523b3ef906020015b60405180910390a35060015b919050565b60095474010000000000000000000000000000000000000000900460ff16158061081f5750303b155b610885576040517f08c379a000000000000000000000000000000000000000000000000000000000815260206004820152601f60248201527f496e697469616c697a65722f416c726561647920496e697469616c697a656400604482015260640161077e565b600980547fffffffffffffffffffffff00ffffffffffffffffffffffffffffffffffffffff16740100000000000000000000000000000000000000001790556108d081830183611d07565b600280547fffffffffffffffffffffffffffffffffffffffffffffffffffffffffffffff001660ff831617905581516000908190610915906001906020870190611723565b5050835161092891906020860190611723565b50506040805180820190915260018082527f31000000000000000000000000000000000000000000000000000000000000006020909201918252610970935060079250611723565b503060009081526004602052604081207fffffffffffffffffffffffffffffffffffffffffffffffffffffffffffffffff90558054610ac191906109b390611b53565b80601f01602080910402602001604051908101604052809291908181526020018280546109df90611b53565b8015610a2c5780601f10610a0157610100808354040283529160200191610a2c565b820191906000526020600020905b815481529060010190602001808311610a0f57829003601f168201915b505050505060078054610a3e90611b53565b80601f0160208091040260200160405190810160405280929190818152602001828054610a6a90611b53565b8015610ab75780601f10610a8c57610100808354040283529160200191610ab7565b820191906000526020600020905b815481529060010190602001808311610a9a57829003601f168201915b5050505050611640565b610aca336116ac565b5050565b60095460009073ffffffffffffffffffffffffffffffffffffffff163314610b52576040517f08c379a000000000000000000000000000000000000000000000000000000000815260206004820152601860248201527f4f776e6572736869702f4e6f742d417574686f72697a65640000000000000000604482015260640161077e565b8160036000828254610b649190611d7b565b909155505073ffffffffffffffffffffffffffffffffffffffff831660009081526004602052604081208054849290610b9e908490611d7b565b909155505060405182815273ffffffffffffffffffffffffffffffffffffffff8416906000907fddf252ad1be2c89b69c2b068fc378daa952ba7f163c4a11628f55a4df523b3ef906020015b60405180910390a350600192915050565b6007805461060a90611b53565b60095460009073ffffffffffffffffffffffffffffffffffffffff163314610c8c576040517f08c379a000000000000000000000000000000000000000000000000000000000815260206004820152601860248201527f4f776e6572736869702f4e6f742d417574686f72697a65640000000000000000604482015260640161077e565b73ffffffffffffffffffffffffffffffffffffffff8316600090815260056020908152604080832033845290915281208054849290610ccc908490611bd6565b909155505073ffffffffffffffffffffffffffffffffffffffff831660009081526004602052604081208054849290610d06908490611bd6565b909155505060038054839003905560405182815260009073ffffffffffffffffffffffffffffffffffffffff8516907fddf252ad1be2c89b69c2b068fc378daa952ba7f163c4a11628f55a4df523b3ef90602001610bea565b6001805461060a90611b53565b60095460009073ffffffffffffffffffffffffffffffffffffffff163314610df0576040517f08c379a000000000000000000000000000000000000000000000000000000000815260206004820152601860248201527f4f776e6572736869702f4e6f742d417574686f72697a65640000000000000000604482015260640161077e565b8160036000828254610e029190611d7b565b9091555050336000818152600460209081526040808320805487019055518581527fddf252ad1be2c89b69c2b068fc378daa952ba7f163c4a11628f55a4df523b3ef91016107e5565b60006106983384846115a3565b60608167ffffffffffffffff811115610e7357610e73611bed565b604051908082528060200260200182016040528015610ea657816020015b6060815260200190600190039081610e915790505b50905060005b82811015610fc35760008030868685818110610eca57610eca611d93565b9050602002810190610edc9190611dc2565b604051610eea929190611e2e565b600060405180830381855af49150503d8060008114610f25576040519150601f19603f3d011682016040523d82523d6000602084013e610f2a565b606091505b509150915081610f9057604481511015610f4357600080fd5b60048101905080806020019051810190610f5d9190611e3e565b6040517f08c379a000000000000000000000000000000000000000000000000000000000815260040161077e919061187f565b80848481518110610fa357610fa3611d93565b602002602001018190525050508080610fbb90611eb5565b915050610eac565b5092915050565b73ffffffffffffffffffffffffffffffffffffffff8716611047576040517f08c379a000000000000000000000000000000000000000000000000000000000815260206004820152601960248201527f455243323631322f496e76616c69642d616464726573732d3000000000000000604482015260640161077e565b428410156110b1576040517f08c379a000000000000000000000000000000000000000000000000000000000815260206004820152601460248201527f455243323631322f457870697265642d74696d65000000000000000000000000604482015260640161077e565b60065473ffffffffffffffffffffffffffffffffffffffff888116600081815260086020908152604080832080546001810190915581517f00000000000000000000000000000000000000000000000000000000000000008185015280830195909552948c166060850152608084018b905260a084019490945260c08084018a90528451808503909101815260e084019485905280519101207f1901000000000000000000000000000000000000000000000000000000000000845260e283019490945261010290910192909252604290206040805160008082526020820180845284905260ff88169282019290925260608101869052608081018590529192509060019060a0016020604051602081039080840390855afa1580156111db573d6000803e3d6000fd5b50506040517fffffffffffffffffffffffffffffffffffffffffffffffffffffffffffffffe0015191505073ffffffffffffffffffffffffffffffffffffffff81161580159061125657508873ffffffffffffffffffffffffffffffffffffffff168173ffffffffffffffffffffffffffffffffffffffff16145b6112bc576040517f08c379a000000000000000000000000000000000000000000000000000000000815260206004820152601960248201527f455243323631322f496e76616c69642d5369676e617475726500000000000000604482015260640161077e565b50506112c98787876114b4565b50505050505050565b60095473ffffffffffffffffffffffffffffffffffffffff163314611353576040517f08c379a000000000000000000000000000000000000000000000000000000000815260206004820152601860248201527f4f776e6572736869702f4e6f742d417574686f72697a65640000000000000000604482015260640161077e565b600980547fffffffffffffffffffffffff000000000000000000000000000000000000000016905560405160009033907f8be0079c531659141344cd1fd0a4f28419497f9722a3daafe3b4186f6b6457e0908390a3565b60095473ffffffffffffffffffffffffffffffffffffffff16331461142b576040517f08c379a000000000000000000000000000000000000000000000000000000000815260206004820152601860248201527f4f776e6572736869702f4e6f742d417574686f72697a65640000000000000000604482015260640161077e565b73ffffffffffffffffffffffffffffffffffffffff81166114a8576040517f08c379a000000000000000000000000000000000000000000000000000000000815260206004820152601a60248201527f4f776e6572736869702f4e6f742d416c6c6f7765642d5a65726f000000000000604482015260640161077e565b6114b1816116ac565b50565b73ffffffffffffffffffffffffffffffffffffffff8216301415611534576040517f08c379a000000000000000000000000000000000000000000000000000000000815260206004820181905260248201527f45524332302f496d706f737369626c652d417070726f76652d746f2d53656c66604482015260640161077e565b73ffffffffffffffffffffffffffffffffffffffff83811660008181526005602090815260408083209487168084529482529182902085905590518481527f8c5be1e5ebec7d5bd14f71427d1e84f3dd0314c0f7b2291e5b200ac8c7c3b92591015b60405180910390a3505050565b73ffffffffffffffffffffffffffffffffffffffff8316600090815260046020526040812080548392906115d8908490611bd6565b909155505073ffffffffffffffffffffffffffffffffffffffff808316600081815260046020526040908190208054850190555190918516907fddf252ad1be2c89b69c2b068fc378daa952ba7f163c4a11628f55a4df523b3ef906115969085815260200190565b8051611653906007906020840190611723565b508151602092830120815191830191909120604080517f8b73c3c69bb8fe3d512ecc4cf759cc79239f7b179b0ffacaa9a75d522b39400f8152938401929092529082015246606082015230608082015260a09020600655565b6009805473ffffffffffffffffffffffffffffffffffffffff8381167fffffffffffffffffffffffff0000000000000000000000000000000000000000831681179093556040519116919082907f8be0079c531659141344cd1fd0a4f28419497f9722a3daafe3b4186f6b6457e090600090a35050565b82805461172f90611b53565b90600052602060002090601f0160209004810192826117515760008555611797565b82601f1061176a57805160ff1916838001178555611797565b82800160010185558215611797579182015b8281111561179757825182559160200191906001019061177c565b506117a39291506117a7565b5090565b5b808211156117a357600081556001016117a8565b6000602082840312156117ce57600080fd5b81357fffffffff00000000000000000000000000000000000000000000000000000000811681146117fe57600080fd5b9392505050565b60005b83811015611820578181015183820152602001611808565b8381111561182f576000848401525b50505050565b6000815180845261184d816020860160208601611805565b601f017fffffffffffffffffffffffffffffffffffffffffffffffffffffffffffffffe0169290920160200192915050565b6020815260006117fe6020830184611835565b803573ffffffffffffffffffffffffffffffffffffffff811681146107f157600080fd5b600080604083850312156118c957600080fd5b6118d283611892565b946020939093013593505050565b6000806000606084860312156118f557600080fd5b6118fe84611892565b925061190c60208501611892565b9150604084013590509250925092565b60006020828403121561192e57600080fd5b5035919050565b6000806020838503121561194857600080fd5b823567ffffffffffffffff8082111561196057600080fd5b818501915085601f83011261197457600080fd5b81358181111561198357600080fd5b86602082850101111561199557600080fd5b60209290920196919550909350505050565b6000602082840312156119b957600080fd5b6117fe82611892565b600080602083850312156119d557600080fd5b823567ffffffffffffffff808211156119ed57600080fd5b818501915085601f830112611a0157600080fd5b813581811115611a1057600080fd5b8660208260051b850101111561199557600080fd5b6000602080830181845280855180835260408601915060408160051b870101925083870160005b82811015611a98577fffffffffffffffffffffffffffffffffffffffffffffffffffffffffffffffc0888603018452611a86858351611835565b94509285019290850190600101611a4c565b5092979650505050505050565b803560ff811681146107f157600080fd5b600080600080600080600060e0888a031215611ad157600080fd5b611ada88611892565b9650611ae860208901611892565b95506040880135945060608801359350611b0460808901611aa5565b925060a0880135915060c0880135905092959891949750929550565b60008060408385031215611b3357600080fd5b611b3c83611892565b9150611b4a60208401611892565b90509250929050565b600181811c90821680611b6757607f821691505b60208210811415611ba1577f4e487b7100000000000000000000000000000000000000000000000000000000600052602260045260246000fd5b50919050565b7f4e487b7100000000000000000000000000000000000000000000000000000000600052601160045260246000fd5b600082821015611be857611be8611ba7565b500390565b7f4e487b7100000000000000000000000000000000000000000000000000000000600052604160045260246000fd5b604051601f82017fffffffffffffffffffffffffffffffffffffffffffffffffffffffffffffffe016810167ffffffffffffffff81118282101715611c6357611c63611bed565b604052919050565b600067ffffffffffffffff821115611c8557611c85611bed565b50601f017fffffffffffffffffffffffffffffffffffffffffffffffffffffffffffffffe01660200190565b600082601f830112611cc257600080fd5b8135611cd5611cd082611c6b565b611c1c565b818152846020838601011115611cea57600080fd5b816020850160208301376000918101602001919091529392505050565b600080600060608486031215611d1c57600080fd5b833567ffffffffffffffff80821115611d3457600080fd5b611d4087838801611cb1565b94506020860135915080821115611d5657600080fd5b50611d6386828701611cb1565b925050611d7260408501611aa5565b90509250925092565b60008219821115611d8e57611d8e611ba7565b500190565b7f4e487b7100000000000000000000000000000000000000000000000000000000600052603260045260246000fd5b60008083357fffffffffffffffffffffffffffffffffffffffffffffffffffffffffffffffe1843603018112611df757600080fd5b83018035915067ffffffffffffffff821115611e1257600080fd5b602001915036819003821315611e2757600080fd5b9250929050565b8183823760009101908152919050565b600060208284031215611e5057600080fd5b815167ffffffffffffffff811115611e6757600080fd5b8201601f81018413611e7857600080fd5b8051611e86611cd082611c6b565b818152856020838501011115611e9b57600080fd5b611eac826020830160208601611805565b95945050505050565b60007fffffffffffffffffffffffffffffffffffffffffffffffffffffffffffffffff821415611ee757611ee7611ba7565b506001019056fea2646970667358221220d32d2b0a862a7434a55f3a4ff7330cb336b891cc17a965515b27480b5ea34b4764736f6c634300080b0033",
  "devdoc": {
    "author": "yoonsung.eth",
    "kind": "dev",
    "methods": {
      "initialize(bytes)": {
        "params": {
          "data": " ,  ,   abi encode , bytes   ."
        }
      },
      "permit(address,address,uint256,uint256,uint8,bytes32,bytes32)": {
        "params": {
          "deadline": "The time at which this expires (unix time)",
          "owner": "Token owner's address (Authorizer)",
          "r": "r of the signature",
          "s": "s of the signature",
          "spender": "Spender's address",
          "v": "v of the signature",
          "value": "Amount of allowance"
        }
      },
      "supportsInterface(bytes4)": {
        "details": "Interface identification is specified in ERC-165. This function  uses less than 30,000 gas.",
        "params": {
          "interfaceID": "The interface identifier, as specified in ERC-165"
        },
        "returns": {
          "_0": "`true` if the contract implements `interfaceID` and  `interfaceID` is not 0xffffffff, `false` otherwise"
        }
      },
      "transferOwnership(address)": {
        "params": {
          "newOwner": "The address of the new owner of the contract"
        }
      }
    },
    "title": "StandardERC20",
    "version": 1
  },
  "userdoc": {
    "kind": "user",
    "methods": {
      "initialize(bytes)": {
        "notice": "ERC20  .  , ,    .       .            ."
      },
      "owner()": {
        "notice": "Get the address of the owner"
      },
      "permit(address,address,uint256,uint256,uint8,bytes32,bytes32)": {
        "notice": "Verify a signed approval permit and execute if valid"
      },
      "supportsInterface(bytes4)": {
        "notice": "Query if a contract implements an interface"
      },
      "transferOwnership(address)": {
        "notice": "Set the address of the new owner of the contract"
      }
    },
    "notice": "ERC20 ERC2612 , ERC165, ERC173   .",
    "version": 1
  },
  "storageLayout": {
    "storage": [
      {
        "astId": 823,
        "contract": "contracts/tokens/StandardERC20.sol:StandardERC20",
        "label": "name",
        "offset": 0,
        "slot": "0",
        "type": "t_string_storage"
      },
      {
        "astId": 825,
        "contract": "contracts/tokens/StandardERC20.sol:StandardERC20",
        "label": "symbol",
        "offset": 0,
        "slot": "1",
        "type": "t_string_storage"
      },
      {
        "astId": 827,
        "contract": "contracts/tokens/StandardERC20.sol:StandardERC20",
        "label": "decimals",
        "offset": 0,
        "slot": "2",
        "type": "t_uint8"
      },
      {
        "astId": 829,
        "contract": "contracts/tokens/StandardERC20.sol:StandardERC20",
        "label": "totalSupply",
        "offset": 0,
        "slot": "3",
        "type": "t_uint256"
      },
      {
        "astId": 833,
        "contract": "contracts/tokens/StandardERC20.sol:StandardERC20",
        "label": "balanceOf",
        "offset": 0,
        "slot": "4",
        "type": "t_mapping(t_address,t_uint256)"
      },
      {
        "astId": 839,
        "contract": "contracts/tokens/StandardERC20.sol:StandardERC20",
        "label": "allowance",
        "offset": 0,
        "slot": "5",
        "type": "t_mapping(t_address,t_mapping(t_address,t_uint256))"
      },
      {
        "astId": 988,
        "contract": "contracts/tokens/StandardERC20.sol:StandardERC20",
        "label": "DOMAIN_SEPARATOR",
        "offset": 0,
        "slot": "6",
        "type": "t_bytes32"
      },
      {
        "astId": 990,
        "contract": "contracts/tokens/StandardERC20.sol:StandardERC20",
        "label": "version",
        "offset": 0,
        "slot": "7",
        "type": "t_string_storage"
      },
      {
        "astId": 994,
        "contract": "contracts/tokens/StandardERC20.sol:StandardERC20",
        "label": "nonces",
        "offset": 0,
        "slot": "8",
        "type": "t_mapping(t_address,t_uint256)"
      },
      {
        "astId": 2286,
        "contract": "contracts/tokens/StandardERC20.sol:StandardERC20",
        "label": "owner",
        "offset": 0,
        "slot": "9",
        "type": "t_address"
      },
      {
        "astId": 1818,
        "contract": "contracts/tokens/StandardERC20.sol:StandardERC20",
        "label": "_initialized",
        "offset": 20,
        "slot": "9",
        "type": "t_bool"
      }
    ],
    "types": {
      "t_address": {
        "encoding": "inplace",
        "label": "address",
        "numberOfBytes": "20"
      },
      "t_bool": {
        "encoding": "inplace",
        "label": "bool",
        "numberOfBytes": "1"
      },
      "t_bytes32": {
        "encoding": "inplace",
        "label": "bytes32",
        "numberOfBytes": "32"
      },
      "t_mapping(t_address,t_mapping(t_address,t_uint256))": {
        "encoding": "mapping",
        "key": "t_address",
        "label": "mapping(address => mapping(address => uint256))",
        "numberOfBytes": "32",
        "value": "t_mapping(t_address,t_uint256)"
      },
      "t_mapping(t_address,t_uint256)": {
        "encoding": "mapping",
        "key": "t_address",
        "label": "mapping(address => uint256)",
        "numberOfBytes": "32",
        "value": "t_uint256"
      },
      "t_string_storage": {
        "encoding": "bytes",
        "label": "string",
        "numberOfBytes": "32"
      },
      "t_uint256": {
        "encoding": "inplace",
        "label": "uint256",
        "numberOfBytes": "32"
      },
      "t_uint8": {
        "encoding": "inplace",
        "label": "uint8",
        "numberOfBytes": "1"
      }
    }
  }
}